:100000009EC0B8C0B7C0B6C0B5C0B4C0B3C0B2C05F
:10001000B1C005C2AFC0AEC0ADC0ACC0B1C3AAC014
:10002000A9C0A8C0A7C00B0B0B0B0B0B0B0B0B0B2A
:100030000B0B0B0B0B0B0B0B0A0A0A0A0A0A09091A
:10004000090808080707050504040403030302025E
:10005000020202020101010101010101010101018C
:10006000010101010101000000000000000000008A
:100070000000000000000000000000000000000080
:100080000000000000000000000000000000000070
:100090000000000000000000000000000000000060
:1000A0000000000000000000000000000000000050
:1000B0000000000000000000000000000000000040
:1000C0000000000000000000000000000000000030
:1000D0000000000000000000000000000000000020
:1000E0000000000000000000000000000000000010
:1000F0000000000000000000000000000000000000
:1001000000000000000000000000000000000000EF
:1001100000000000000000000000000000000000DF
:1001200000000000000000000000000000000101CD
:10013000010102020202020202020303030311246C
:100140001FBECFE5D4E0DEBFCDBF10E0A0E6B0E03B
:10015000E6E5FBE002C005900D92A637B107D9F79E
:1001600010E0A6E7B0E001C01D92A33EB107E1F7A1
:10017000F7D0EFC445CF0F931F93DF93CF9300D0F9
:1001800000D00F92CDB7DEB7062F142FDE011196E7
:10019000E5E6F0E025E001900D922150E1F79E01A7
:1001A0002F5F3F4F47E2803194072CF4B9014AE0BA
:1001B00050E0A0D404C0C90160E670E094D4DE0130
:1001C0001196FD0101900020E9F731978E2F8A1BCF
:1001D000002369F0E12FF0E0EF57FF4F00831F5F2E
:1001E000E12FF0E0EF57FF4F9AE3908301C01150E9
:1001F000FE0131969F01280F311D912F07C09F5F8F
:100200004191A92FB0E0AF57BF4F4C93E217F307CE
:10021000B1F78F5F810FE82FF0E0EF57FF4F9CE2BF
:1002200090838F5F0F900F900F900F900F90CF9152
:10023000DF911F910F9108955D9BFECF8CB90895BA
:10024000CF93DF93C82FD92F01C0F6DF8991882380
:10025000E1F7DF91CF910895BF92CF92DF92EF92B5
:10026000FF920F931F93CF93DF938C0195E0E92EBC
:10027000F12C40E0C0E1D7E28AE0C82ED12CC801C1
:10028000BE01CDD3B62E662329F4442319F4C13020
:10029000D10521F48B2D805DCFDF41E0CE01B60189
:1002A000BED30894E108F108E114F10471F02B2D9C
:1002B00030E02C9FC0012D9F900D3C9F900D11248C
:1002C000081B190BC62FD72FDACFDF91CF911F91C3
:1002D0000F91FF90EF90DF90CF90BF900895E82F9F
:1002E000F0E0E058FF4F8AE0808381E890E0A8DFEB
:1002F000E1E8F0E0119280E0E33BF807D9F780E015
:10030000089589B7816089BF83B7846083BF0895EA
:1003100086B1856086B980EC87B9379A339A369A68
:1003200008958FB580688FBD8EB580618EBD8EB506
:1003300081608EBD8AE491E097BD86BDB99A84E75D
:1003400090E09BBD8ABD0895BB9A85B5886485BD44
:1003500085B5806285BD85B5816085BD13BC089576
:1003600084B3886384BB87B3816387BB8C9A8D9A7F
:10037000BA9AF89410BC89E189B980B5866880BDC5
:100380008AB188698AB954985798CBDFDDDF82EC4F
:1003900091E065E070E041E050E02DEC30E040D2CB
:1003A0008FE090E06AE470E042E050E025EB30E05E
:1003B00037D27894ADDF82E88093CA00A2DF949AA6
:1003C0008BE690E03DDF12C08F5F8093CA002FEB79
:1003D00034ED41E0215030404040E1F700C00000E2
:1003E00090E03ADF8CE228DF80E226DF8091CA00CD
:1003F000883C50F38AE020DF81E080937E00FFCFCD
:1004000080917E00813051F482E48A95F1F700C03A
:1004100087E08093B40081EC87B9369A08951F92E3
:100420000F920FB60F9211242F933F934F935F9328
:100430006F937F938F939F93AF93BF93CF93EF93DC
:10044000FF938091B300C091CA00813029F4959A3E
:100450001092B300C09505C0959881E08093B300D9
:10046000C2BFC7FFCDDFC2BFFF91EF91CF91BF9158
:10047000AF919F918F917F916F915F914F913F913C
:100480002F910F900FBE0F901F90189540917F00F5
:100490008091CB009091CC0060E06DDE80937F0076
:1004A00082E08093B40080EC87B9369A08958091F9
:1004B000CB009091CC00909379008093780088E0F5
:1004C0008093B400369A08958091780090917900D5
:1004D0002091CB003091CC00820F931F9093790034
:1004E0008093780089E08093B400369A08958091D3
:1004F000CB009091CC002091780030917900820F50
:10050000931F63E070E08BD2609378007093790062
:1005100040917F00CB0160E02EDE80937F0083E07E
:100520008093B40082EC87B9369A08958091CB000D
:100530009091CC00909377008093760040917F005B
:1005400060E019DE80937F0084E08093B40082EC49
:1005500087B9C29A369A089524B135B1932F80E0B5
:1005600030E0282B392BC90108956091C7007091A4
:10057000C8008DEE90E04DEC50E07CD1AA2797FDAD
:10058000A095BA2F8F3F9105A105B10519F014F080
:100590008FEF05C0B7FF03C01092CA000895809383
:1005A000CA000895609176007091770084ED92E022
:1005B00045EB50E05FD19C01B901882777FD80951C
:1005C000982F24E030E040E050E050D22C583F4FCC
:1005D0004F4F5F4F253C3105410551051CF084EC20
:1005E00090E007C022333105410551052CF482E328
:1005F00090E09BBD8ABD02C03BBD2ABD8AB59BB5BC
:1006000040917F0060E0B7DD80937F000895DF9325
:10061000CF930F92CDB7DEB78091DF009091E000CD
:10062000A091E100B091E2009C01AD012F55304056
:1006300040405040213431054105510538F48F5573
:10064000E82FF0E0EA5DFF4FE4910CC08F35910593
:10065000A105B10520F4E6E2F0E0E49103C0E5E68F
:10066000F0E0E491E983FE013196898180FF02C0C8
:10067000AD9A01C0AD98808181FF02C0AC9A01C0E3
:10068000AC98808182FF02C0AB9A01C0AB98808198
:1006900083FF02C0C59A01C0C598808184FF02C053
:1006A000C49A01C0C498808185FF02C0C09A01C06D
:1006B000C0980F90CF91DF910895C2988091CB00A0
:1006C0009091CC0090937B0080937A001092B400BC
:1006D00069DF80917A0090917B00209176003091C3
:1006E0007700821B930B8F3F910509F048F42FEFA1
:1006F00030E0281B390B3093C8002093C70004C09A
:100700001092C8001092C7008091C7009091C80055
:10071000895E90408930910510F4949801C0949AB4
:10072000E0917800F0917900EA59FF4FE4918E2F23
:1007300090E0A0E0B0E08093DF009093E000A09311
:10074000E100B093E200E3BD62DF40917F00809161
:10075000DF009091E00060E00EDD80937F0040912B
:100760007F008091C7009091C80060E004DD809315
:100770007F00FBDE80917F00B2DD80937F000895D3
:100780001F920F920FB60F9211242F933F934F9306
:100790005F936F937F938F939F93AF93BF93EF93E9
:1007A000FF93DADE9093CC008093CB008091B4006D
:1007B000873011F46BDE23C08091B400823011F4D5
:1007C00076DE1DC08091B400883011F47DDE17C044
:1007D0008091B400893011F48ADE11C08091B40098
:1007E000833011F4A3DE0BC08091B400843011F487
:1007F00064DF05C0B1DE9093CC008093CB00FF9105
:10080000EF91BF91AF919F918F917F916F915F9188
:100810004F913F912F910F900FBE0F901F90189501
:10082000CF93DF93FB01E9011A821B821C821D8298
:10083000198218829F838E83798768875B874A87AE
:10084000BC016F5F7F4F8FEF9FE7FDD07D876C8787
:1008500031969F01442737FD4095542F6FEF7FEF6E
:1008600080E090E003D12E873F87488B598BDF9142
:10087000CF910895EF92FF920F931F93CF93DF9341
:100880007B01EA01BC016E197F098C859D85861765
:10089000970784F0909581959F4F681779076CF0C2
:1008A0008E819F81689F8001699F100D789F100D38
:1008B000112405C00FEF1FE702C001E010E88827F0
:1008C00077FD8095982F2A813B814C815D81620F55
:1008D000731F841F951F2E853F85488959892617C8
:1008E0003707480759074CF42A833B834C835D83C1
:1008F0006FEF7FEF80E090E020C0509540953095FD
:1009000021953F4F4F4F5F4F62177307840795073D
:100910004CF42A833B834C835D8361E070E08FEF6E
:100920009FEF0BC06A837B838C839D8328853985E9
:10093000442737FD4095542F53D0488159814E1993
:100940005F09EA85FB854E9F90014F9F300D5E9FAA
:10095000300D1124F982E882A8017A010027F7FC02
:100960000095102F442737FD4095542FE20EF31EBB
:10097000041F151F2EE130E040E050E077D0E20E7A
:10098000F31E041F151FC801B70124E130E040E049
:1009900050E06CD0213080E838078FEF48078FEFA8
:1009A000580724F421E030E84FEF5FEF203080E873
:1009B000380780E0480780E0580724F02FEF3FE732
:1009C00040E050E0C901DF91CF911F910F91FF905E
:1009D000EF900895FC01128213821482158208950B
:1009E000629FD001739FF001829FE00DF11D649F13
:1009F000E00DF11D929FF00D839FF00D749FF00D9F
:100A0000659FF00D9927729FB00DE11DF91F639F3F
:100A1000B00DE11DF91FBD01CF0111240895AA1BDE
:100A2000BB1B51E107C0AA1FBB1FA617B70710F0D9
:100A3000A61BB70B881F991F5A95A9F7809590950B
:100A4000BC01CD01089597FB092E07260AD077FD3A
:100A500004D0E5DF06D000201AF4709561957F4F31
:100A60000895F6F7909581959F4F089597FB092E6D
:100A700005260ED057FD04D014D00AD0001C38F43F
:100A800050954095309521953F4F4F4F5F4F0895BA
:100A9000F6F790958095709561957F4F8F4F9F4F9A
:100AA0000895A1E21A2EAA1BBB1BFD010DC0AA1FAF
:100AB000BB1FEE1FFF1FA217B307E407F50720F0C7
:100AC000A21BB30BE40BF50B661F771F881F991F42
:100AD0001A9469F760957095809590959B01AC018B
:100AE000BD01CF010895FB01DC0101900D920020B2
:100AF000E1F70895FB019F01E8944230BCF04532D4
:100B0000ACF44A3029F497FB1EF4909581959F4FE1
:100B1000642F772784DF805D8A330CF0895D8193B1
:100B2000CB010097A9F716F45DE251931082C90139
:100B300000C0DC01FC01672F71917723E1F7329748
:100B400004C07C916D9370836291AE17BF07C8F3A8
:060B50000895F894FFCFA8
:100B56006F7665720000000000000072616D702003
:060B660074656D700A00C9
:00000001FF
