:1000000012C02CC02BC02AC029C028C027C026C0BF
:1000100025C01EC123C022C021C020C009C41EC0EB
:100020001DC01CC01BC011241FBECFE5D4E0DEBF25
:10003000CDBF10E0A0E6B0E0E4EAFCE002C005902D
:100040000D92A23AB107D9F711E0A2EAB0E001C0DF
:100050001D92A536B107E1F72DD522C6D1CFEF927B
:10006000FF920F931F93CF93DF9300D000D000D067
:10007000CDB7DEB7E62EF42EDE011196E0E6F0E015
:1000800026E001900D922150E1F78E010F5F1F4F86
:10009000B8014AE050E0E0D5F80101900020E9F70E
:1000A00031978E2F801BEE2069F0EF2DF0E0ED549C
:1000B000FF4FE082F394EF2DF0E0ED54FF4F9AE311
:1000C000908301C0FA949E012F5F3F4FF9019F2D4D
:1000D00007C09F5F4191A92FB0E0AD54BF4F4C9333
:1000E0004E2F421B4817A8F38F0DE82FEF5FF0E06B
:1000F000ED54FF4F9CE290838E5F26960FB6F894E6
:10010000DEBF0FBECDBFDF91CF911F910F91FF904A
:10011000EF9008955D9BFECF8CB90895CF93DF9348
:10012000EC0101C0F7DF89918823E1F7DF91CF91DE
:100130000895BF92CF92DF92EF92FF920F931F9399
:10014000CF93DF938C0125E0E22EF12C20E0C0E17B
:10015000D7E23AE0C32ED12CC801BE0119D5B62E84
:10016000662329F4222319F4C130D10521F48B2D03
:10017000805DD0DF21E06B2D70E06C9FC0016D9F32
:10018000900D7C9F900D1124081B190BCE01B60118
:10019000FFD4EB010894E108F108E114F104E1F661
:1001A000DF91CF911F910F91FF90EF90DF90CF9053
:1001B000BF900895E82FF0E0EE54FF4F8AE080836F
:1001C00083EB90E0ABDFE3EBF0E082E31192815050
:1001D000E9F7089589B7816089BF83B7846083BFD9
:1001E000089586B1856086B980EC87B9379A339ACD
:1001F000369A08958FB580688FBD8EB580618EBDAB
:100200008EB581608EBD8AE491E097BD86BDB99AB6
:1002100084E790E09BBD8ABD0895BB9A85B588644C
:1002200085BD85B5806285BD85B5816085BD13BC02
:1002300008958091A400813051F482E48A95F1F709
:1002400000C087E08093E60081EC87B9369A089574
:100250001F920F920FB60F9211242F933F934F933B
:100260005F936F937F938F939F93AF93BF93CF933E
:10027000EF93FF938091E500813039F4959A1092C5
:10028000E500C0914C01C09507C0959881E080932E
:10029000E500C0914C01C2BFC7FFCBDFC2BFFF91D9
:1002A000EF91CF91BF91AF919F918F917F916F917E
:1002B0005F914F913F912F910F900FBE0F901F9024
:1002C00018954091A30080914D0190914E0160E0FE
:1002D000C6DE8093A30082E08093E60080EC87B9BD
:1002E000369A089580914D0190914E019093AA0005
:1002F0008093A90088E08093E600369A0895809163
:10030000A9009091AA0020914D0130914E01820FD9
:10031000931F9093AA008093A90089E08093E60040
:10032000369A089580914D0190914E012091A90037
:100330003091AA00820F931F63E070E029D4CB01B3
:100340006093A9009093AA004091A30060E087DE2B
:100350008093A30083E08093E60082EC87B9369A0D
:10036000089584B195B1392F20E090E0822B932B32
:1003700008956091F9007091FA008DEE90E04FE4DD
:1003800051E0D0D2AA2797FDA095BA2F8F3F9105B3
:10039000A105B10519F014F08FEF05C0B7FF03C038
:1003A00010924C01089580934C010895AF92BF9232
:1003B000CF92DF92EF92FF920F931F93CF93DF9331
:1003C000CDB7DEB7E0970FB6F894DEBF0FBECDBF56
:1003D000C2984AE14A95F1F700C0BA9820914D01C0
:1003E00030914E013093A8002093A7001092E600B0
:1003F0008091AB009091AC00281B390B2F3F310549
:1004000009F048F48FEF90E0821B930B9093FA0071
:100410008093F90004C01092FA001092F9008091C4
:10042000F9009091FA009C01295E30402930310595
:1004300010F4949801C0949A4091A30060E00FDEFC
:100440008093A300E4E2F1E0DF0180E014964D9197
:100450005D916D917C9117974D935D936D937D9315
:100460008F5F893099F78091A9009091AA00A0E050
:10047000B0E08093480190934901A0934A01B09362
:100480004B012AE080E090E0DC01419151916191C3
:100490007191840F951FA61FB71F2150B1F7BC01A2
:1004A000CD012AE030E040E050E099D389019A0183
:1004B00058011093AA000093A900DE011196E2E70B
:1004C000F0E080E301900D928150E1F789819A81FB
:1004D000A816B90640F4CB80DC800CC0CC24DD2407
:1004E000760120E046C08DA59EA58A159B05B0F734
:1004F000CFA4D8A8EE24FF24F4CFDC01AA0FBB1FA1
:10050000AA0FBB1F41E050E04C0F5D1FA40FB51FA9
:100510006D917C911197A616B70650F1FC013196AA
:10052000EE0FFF1FEE0FFF1FE40FF51F008111817B
:100530000A151B05E8F01296CD90DC901397D501B3
:10054000A61BB70B828193818C199D09A89FA001DE
:10055000A99F500DB89F500D1124C801861B970B01
:10056000BC01CA0115D36C0D7D1D6B01EE24FF2467
:100570002F5F822F90E02B3009F0BFCF4091A30076
:10058000C60160E06CDD8093A300D701C6018054F2
:100590009040A040B04089349105A105B10500F517
:1005A000C701B60120EF38EE46E250E0D2D26050EB
:1005B0007C438A4B994028E430E040E050E00FD380
:1005C000CA01B90120E137E240E050E008D32093AE
:1005D00061013093620140936301509364011BC039
:1005E00099E8C916D104E104F10468F08FEF90E0B6
:1005F000A0E0B0E08093610190936201A093630159
:10060000B093640108C010926101109262011092CF
:100610006301109264018091610183BD4091A30048
:10062000809161019091620160E019DD8093A300E7
:10063000A0DE8091A300BEDD8093A300E0960FB6FC
:10064000F894DEBF0FBECDBFDF91CF911F910F9108
:10065000FF90EF90DF90CF90BF90AF900895809182
:10066000AF009091B000A091B100B091B20001969E
:10067000A11DB11D8093AF009093B000A093B10075
:10068000B093B20089329105A105B105C8F08091FF
:10069000AD009091AE0001969093AE008093AD00B6
:1006A0001092AF001092B0001092B1001092B20000
:1006B00021E08A34920720F01092AE001092AD0033
:1006C0002091AD003091AE00C901A0E0B0E08A34C5
:1006D00041E0940740E0A40740E0B4072CF089E42F
:1006E00091E09BBD8ABD02C03BBD2ABD8AB59BB5CA
:1006F0004091A30060E0B3DC8093A30008950F93C2
:100700001F93CF93DF939C01CBEFD0E0FE0149E034
:1007100084819581A681B78181939193A193B193AF
:100720004150B1F7C901A0E0B0E080931F01909360
:100730002001A0932101B093220140E050E000E0AD
:1007400010E0E0E0F0E060E070E089919991A9911B
:10075000B991680F791F489F9001499F300D589FAC
:10076000300D1124E20FF31F449FC001459F900DEF
:10077000549F900D1124080F191F4F5F5F4F4A308F
:10078000510519F78DE290E0689F9001699F300D47
:10079000789F300D112446EF5FEFE49FC001E59F85
:1007A000900DF49F900D1124280F391F049FB00164
:1007B000059F700D149F700D11246751784FC9016A
:1007C000FBD1CB0177FF03C0909581959F4FDF91BF
:1007D000CF911F910F91089580914D0190914E01FD
:1007E0009093AC008093AB004091A30060E037DCB5
:1007F0008093A3008091AB009091AC0080DF40918A
:10080000A30090E060E02BDC8093A3008091AB001C
:100810009091AC0024DF84E08093E60082EC87B9FD
:10082000BA9A8AE18A95F1F700C0C29A369A089579
:100830001F920F920FB60F9211242F933F934F9355
:100840005F936F937F938F939F93AF93BF93EF9338
:10085000FF9387DD90934E0180934D018091E600D8
:10086000873011F42EDD23C08091E600823011F430
:1008700039DD1DC08091E600883011F440DD17C0DD
:100880008091E600893011F44DDD11C08091E600C1
:10089000833011F4A1DF0BC08091E600843011F4A5
:1008A00085DD05C05EDD90934E0180934D01FF9183
:1008B000EF91BF91AF919F918F917F916F915F91D8
:1008C0004F913F912F910F900FBE0F901F90189551
:1008D000CF93DF93FB01E9011A821B821C821D82E8
:1008E000198218829F838E83798768875B874A87FE
:1008F000BC016F5F7F4F8FEF9FE75ED17D876C8775
:1009000031969F01442737FD4095542F6FEF7FEFBD
:1009100080E090E086D12E873F87488B598BDF910E
:10092000CF910895CF92DF92EF92FF920F931F9392
:10093000CF93DF936B01EA018C01061B170B8C85AB
:100940009D858017910784F0909581959F4F08179A
:1009500019077CF08E819F81089F7001099FF00C20
:10096000189FF00C112409C09FEFE92E9FE7F92E84
:1009700004C081E0E82E80E8F82E222717FD20959C
:10098000322F8A819B81AC81BD81080F191F2A1FDC
:100990003B1F8E859F85A889B98980179107A2077B
:1009A000B3074CF48A839B83AC83BD834FEF5FEF27
:1009B00060E070E024C0B095A095909581959F4F20
:1009C000AF4FBF4F081719072A073B074CF48A831C
:1009D0009B83AC83BD8341E050E06FEF7FEF0FC09E
:1009E0000A831B832C833D8368857985882777FD5F
:1009F0008095982FA9019801ACD0AB01BC018881EA
:100A000099818C199D092A853B85829F8001839F4E
:100A1000100D929F100D1124D982C882C7016C015C
:100A2000EE24D7FCE094FE2CCB01BA012EE130E09D
:100A300040E050E0F6D0C20ED31EE41EF51E222781
:100A400017FD2095322FC00ED11EE21EF31EC701E6
:100A5000B60124E130E040E050E0E3D0C901DA0122
:100A6000813020E892072FEFA2072FEFB20724F47E
:100A700081E090E8AFEFBFEFAC01BD01403080E80E
:100A8000580780E0680780E0780724F04FEF5FE7C1
:100A900060E070E0CA01DF91CF911F910F91FF904C
:100AA000EF90DF90CF900895FC01128213821482A0
:100AB0001582089584B3886384BB87B3816387BB41
:100AC0008C9A8D9AF89410BC89E189B980B58668B2
:100AD00080BD8AB188698AB9549857988BDB9DDBB1
:100AE0008EE591E064E670E040E050E02FE431E014
:100AF000EFDE84E090E064E670E040E050E027EE56
:100B000030E0E6DE78946DDB82E880934C0162DBB6
:100B1000949A87E690E002DB12C08F5F80934C01CD
:100B20002FEB34ED41E0215030404040E1F700C070
:100B3000000090E0FEDA8CE2EDDA80E2EBDA809100
:100B40004C01883C50F38AE0E5DA81E08093A40010
:100B5000FFCF629FD001739FF001829FE00DF11DD6
:100B6000649FE00DF11D929FF00D839FF00D749F27
:100B7000F00D659FF00D9927729FB00DE11DF91FD3
:100B8000639FB00DE11DF91FBD01CF011124089530
:100B9000AA1BBB1B51E107C0AA1FBB1FA617B707A3
:100BA00010F0A61BB70B881F991F5A95A9F78095BF
:100BB0009095BC01CD01089597FB092E07260AD018
:100BC00077FD04D0E5DF06D000201AF4709561951A
:100BD0007F4F0895F6F7909581959F4F0895A1E274
:100BE0001A2EAA1BBB1BFD010DC0AA1FBB1FEE1FA7
:100BF000FF1FA217B307E407F50720F0A21BB30BF2
:100C0000E40BF50B661F771F881F991F1A9469F76D
:100C100060957095809590959B01AC01BD01CF01C9
:100C2000089597FB092E05260ED057FD04D0D7DF77
:100C30000AD0001C38F450954095309521953F4FCF
:100C40004F4F5F4F0895F6F7909580957095619599
:100C50007F4F8F4F9F4F0895FB019F0142306CF0F3
:100C600045325CF4642F772793DF805D8A330CF084
:100C7000895D8193CB010097A9F71082C90100C05B
:100C8000DC01FC01672F71917723E1F7329704C0F3
:100C90007C916D9370836291AE17BF07C8F308957E
:040CA000F894FFCFF6
:100CA4000000000000000072616D702074656D70BA
:100CB4000A0001000000E00144003A025000620210
:100CC40055008A025A00B2026400BC026E00EE02B1
:100CD4008F001B03AA002A03F2004D03E84E000410
:020CE400906519
:00000001FF
