:1000000032C04CC04BC04AC049C048C047C046C0BF
:1000100045C099C143C042C041C040C0ECC33EC0CE
:100020003DC03CC03BC00B0B0B0B0B0B0B0B0B0B6E
:100030000B0B0B0B0B0B0B0B0A0A0A0A0A0A09091A
:10004000090808080707050504040403030302025E
:10005000020202020101010101010101010101018C
:1000600001010101010111241FBECFE5D4E0DEBF73
:10007000CDBF10E0A0E6B0E0ECECFBE002C00590E4
:100080000D92AE3BB107D9F711E0AEEBB0E001C085
:100090001D92AB32B107E1F7F7D096C5B1CF0F9300
:1000A0001F93DF93CF9300D000D00F92CDB7DEB770
:1000B000062F142FDE011196E5E6F0E025E0019011
:1000C0000D922150E1F79E012F5F3F4F47E28031B3
:1000D00094072CF4B9014AE050E047D504C0C901A7
:1000E00060E670E03BD5DE011196FD010190002035
:1000F000E9F731978E2F8A1B002369F0E12FF0E09A
:10010000E753FF4F00831F5FE12FF0E0E753FF4FFE
:100110009AE3908301C01150FE0131969F01280F90
:10012000311D912F07C09F5F4191A92FB0E0A753C8
:10013000BF4F4C93E217F307B1F78F5F810FE82FA2
:10014000F0E0E753FF4F9CE290838F5F0F900F909A
:100150000F900F900F90CF91DF911F910F91089505
:100160005D9BFECF8CB90895CF93DF93C82FD92F15
:1001700001C0F6DF89918823E1F7DF91CF910895DF
:10018000BF92CF92DF92EF92FF920F931F93CF9384
:10019000DF938C0195E0E92EF12C40E0C0E1D7E23D
:1001A0008AE0C82ED12CC801BE0174D4B62E6623B5
:1001B00029F4442319F4C130D10521F48B2D805D3D
:1001C000CFDF41E0CE01B60165D40894E108F10823
:1001D000E114F10471F02B2D30E02C9FC0012D9F14
:1001E000900D3C9F900D1124081B190BC62FD72F83
:1001F000DACFDF91CF911F910F91FF90EF90DF90B9
:10020000CF90BF900895E82FF0E0E853FF4F8AE0C9
:10021000808389EC90E0A8DFE9ECF0E0119280E0C7
:10022000EB3FF807D9F780E0089589B7816089BF6F
:1002300083B7846083BF089586B1856086B980ECFA
:1002400087B9379A339A369A08958FB580688FBDEB
:100250008EB580618EBD8EB581608EBD8AE491E0E1
:1002600097BD86BDB99A84E790E09BBD8ABD08958D
:10027000BB9A85B5886485BD85B5806285BD85B529
:10028000816085BD13BC089584B3886384BB87B344
:10029000816387BB8C9A8D9ABA9AF89410BC89E1D5
:1002A00089B980B5866880BD8AB188698AB9549851
:1002B0005798CBDFDDDF82EC91E065E070E041E054
:1002C00050E025E131E0E7D28FE090E06AE470E0B1
:1002D00042E050E02DEF30E0DED27894ADDF82E8EE
:1002E00080931201A2DF949A8BE690E03DDF12C06A
:1002F0008F5F809312012FEB34ED41E021503040AD
:100300004040E1F700C0000090E03ADF8CE228DFD7
:1003100080E226DF80911201883C50F38AE020DFE2
:1003200081E08093C600FFCF8091C600813051F4F8
:1003300082E48A95F1F700C087E08093FC0081ECAD
:1003400087B9369A08951F920F920FB60F92112413
:100350002F933F934F935F936F937F938F939F93CD
:10036000AF93BF93CF93EF93FF938091FB00C09126
:100370001201813029F4959A1092FB00C09505C0B6
:10038000959881E08093FB00C2BFC7FFCDDFC2BF5D
:10039000FF91EF91CF91BF91AF919F918F917F91FD
:1003A0006F915F914F913F912F910F900FBE0F90E2
:1003B0001F9018954091C7008091130190911401EE
:1003C00060E06DDE8093C70082E08093FC0080ECEB
:1003D00087B9369A089580911301909114019093F2
:1003E000C1008093C00088E08093FC00369A089595
:1003F0008091C0009091C1002091130130911401AF
:10040000820F931F9093C1008093C00089E0809376
:10041000FC00369A08958091130190911401209167
:10042000C0003091C100820F931F63E070E032D3AF
:100430006093C0007093C1004091C700CB0160E0A1
:100440002EDE8093C70083E08093FC0082EC87B9A6
:10045000369A089580911301909114019093BF00F2
:100460008093BE004091C70060E019DE8093C70012
:1004700084E08093FC0082EC87B9C29A369A089592
:1004800024B135B1932F80E030E0282B392BC901FE
:10049000089560910F01709110018DEE90E045E19B
:1004A00051E023D2AA2797FDA095BA2F8F3F91053F
:1004B000A105B10519F014F08FEF05C0B7FF03C017
:1004C0001092120108958093120108956091BE0068
:1004D0007091BF0084ED92E04DEF50E006D29C0198
:1004E000B901882777FD8095982F24E030E040E01F
:1004F00050E019D32C583F4F4F4F5F4F253C3105EB
:10050000410551051CF084EC90E007C02233310511
:10051000410551052CF482E390E09BBD8ABD02C0E9
:100520003BBD2ABD8AB59BB54091C70060E0B7DDF1
:100530008093C7000895DF93CF930F92CDB7DEB7B6
:100540008091270190912801A0912901B0912A0161
:100550009C01AD012F5530404040504021343105C1
:100560004105510538F48F55E82FF0E0EA5DFF4F63
:10057000E4910CC08F359105A105B10520F4E6E2A8
:10058000F0E0E49103C0E5E6F0E0E491E983FE01E8
:100590003196898180FF02C0AD9A01C0AD988081FB
:1005A00081FF02C0AC9A01C0AC98808182FF02C07A
:1005B000AB9A01C0AB98808183FF02C0C59A01C08D
:1005C000C598808184FF02C0C49A01C0C49880810C
:1005D00085FF02C0C09A01C0C0980F90CF91DF91F3
:1005E00008954F925F926F927F928F929F92AF92F7
:1005F000BF92CF92DF92EF92FF921F93DF93CF9340
:10060000CDB7DEB7C854D0400FB6F894DEBF0FBEEA
:10061000CDBFC29880911301909114019093C300B3
:100620008093C2001092FC0051DF8091C200909133
:10063000C3002091BE003091BF00821B930B8F3FFF
:10064000910509F048F42FEF30E0281B390B309367
:10065000100120930F0104C01092100110920F019D
:1006600080910F0190911001895E90408930910531
:1006700010F4949801C0949ADE011196E6E7F0E038
:1006800088E401900D928150E1F7C090C000D090B5
:10069000C1002091270130912801409129015091FA
:1006A0002A0110E02E010894411C511C3DC0DC01C0
:1006B000AA0FBB1FA80FB91FAA0FBB1FA40DB51D02
:1006C000ED90FC901197CE14DF0468F10196FC01C7
:1006D000EE0FFF1FE80FF91FEE0FFF1FE40DF51DD2
:1006E000A080B180AC14BD04F0F012966D907D90A6
:1006F0008D909C901597B6016E197F0980E090E06F
:1007000022813381448155812619370948095909C5
:10071000A2D1AE18BF08950140E050E0E2D1260D0D
:10072000371D481D591D1F5F812F90E01B3009F0B8
:10073000BECF209327013093280140932901509385
:100740002A018091C0009091C10029813A818217CD
:10075000930740F41092270110922801109229016A
:1007600010922A01FE01ED5BFF4F20813181281795
:10077000390760F48EEF90E0A0E0B0E080932701AD
:1007800090932801A0932901B0932A018091270119
:1007900083BDD1DE4091C70080912701909128014F
:1007A00060E07DDC8093C7004091C70080910F011D
:1007B0009091100160E073DC8093C7006ADE809145
:1007C000C70021DD8093C700C85BDF4F0FB6F894E8
:1007D000DEBF0FBECDBFCF91DF911F91FF90EF9095
:1007E000DF90CF90BF90AF909F908F907F906F9051
:1007F0005F904F9008951F920F920FB60F921124A1
:100800002F933F934F935F936F937F938F939F9318
:10081000AF93BF93EF93FF9333DE909314018093D4
:1008200013018091FC00873011F4C4DD23C0809156
:10083000FC00823011F4CFDD1DC08091FC008830B7
:1008400011F4D6DD17C08091FC00893011F4E3DD8E
:1008500011C08091FC00833011F4FCDD0BC080914D
:10086000FC00843011F4BDDE05C00ADE9093140153
:1008700080931301FF91EF91BF91AF919F918F9161
:100880007F916F915F914F913F912F910F900FBE8C
:100890000F901F901895CF93DF93FB01E9011A8207
:1008A0001B821C821D82198218829F838E83798706
:1008B00068875B874A87BC016F5F7F4F8FEF9FE739
:1008C000FDD07D876C8731969F01442737FD409589
:1008D000542F6FEF7FEF80E090E025D12E873F8788
:1008E000488B598BDF91CF910895EF92FF920F9330
:1008F0001F93CF93DF937B01EA01BC016E197F093F
:100900008C859D858617970784F0909581959F4FDC
:10091000681779076CF08E819F81689F8001699FBD
:10092000100D789F100D112405C00FEF1FE702C0B6
:1009300001E010E8882777FD8095982F2A813B8178
:100940004C815D81620F731F841F951F2E853F852B
:100950004889598926173707480759074CF42A83CD
:100960003B834C835D836FEF7FEF80E090E020C09E
:1009700050954095309521953F4F4F4F5F4F6217EF
:100980007307840795074CF42A833B834C835D836C
:1009900061E070E08FEF9FEF0BC06A837B838C83F5
:1009A0009D8328853985442737FD4095542F53D0A2
:1009B000488159814E195F09EA85FB854E9F900158
:1009C0004F9F300D5E9F300D1124F982E882A801FF
:1009D0007A010027F7FC0095102F442737FD40953A
:1009E000542FE20EF31E041F151F2EE130E040E0ED
:1009F00050E099D0E20EF31E041F151FC801B70185
:100A000024E130E040E050E08ED0213080E838072B
:100A10008FEF48078FEF580724F421E030E84FEFBD
:100A20005FEF203080E8380780E0480780E0580713
:100A300024F02FEF3FE740E050E0C901DF91CF9174
:100A40001F910F91FF90EF900895FC011282138285
:100A5000148215820895629FD001739FF001829FD6
:100A6000E00DF11D649FE00DF11D929FF00D839F3D
:100A7000F00D749FF00D659FF00D9927729FB00DDA
:100A8000E11DF91F639FB00DE11DF91FBD01CF01ED
:100A900011240895AA1BBB1B51E107C0AA1FBB1F4D
:100AA000A617B70710F0A61BB70B881F991F5A95FA
:100AB000A9F780959095BC01CD01089597FB092E6B
:100AC00007260AD077FD04D0E5DF06D000201AF40F
:100AD000709561957F4F0895F6F7909581959F4F9A
:100AE0000895A1E21A2EAA1BBB1BFD010DC0AA1F6F
:100AF000BB1FEE1FFF1FA217B307E407F50720F087
:100B0000A21BB30BE40BF50B661F771F881F991F01
:100B10001A9469F760957095809590959B01AC014A
:100B2000BD01CF01089597FB092E05260ED057FD74
:100B300004D0D7DF0AD0001C38F45095409530958A
:100B400021953F4F4F4F5F4F0895F6F79095809551
:100B5000709561957F4F8F4F9F4F0895FB01DC018A
:100B600001900D920020E1F70895FB019F01E894A8
:100B70004230BCF04532ACF44A3029F497FB1EF405
:100B8000909581959F4F642F772784DF805D8A330E
:100B90000CF0895D8193CB010097A9F716F45DE213
:100BA00051931082C90100C0DC01FC01672F7191D3
:100BB0007723E1F7329704C07C916D937083629143
:0C0BC000AE17BF07C8F30895F894FFCFEC
:100BCC006F7665720000000000000072616D70208D
:100BDC0074656D700A0000000000000064000A00DB
:100BEC000000C800140000002C011E000000900141
:100BFC0028000000F40132000000580246000000FA
:100C0C00BC026E00000020038C0000008403B400C2
:0E0C1C000000E803C80000000004FF00000014
:00000001FF
