:1000000012C02CC02BC02AC029C028C027C026C0BF
:1000100025C025C123C022C021C020C0F6C21EC0F9
:100020001DC01CC01BC011241FBECFE5D4E0DEBF25
:10003000CDBF10E0A0E6B0E0E4EAFAE002C005902F
:100040000D92A63AB107D9F711E0A6EAB0E001C0D7
:100050001D92A331B107E1F71AD422C5D1CF0F9376
:100060001F93CF93DF9300D000D00F92CDB7DEB7B0
:10007000062F142FDE011196E5E6F0E025E0019051
:100080000D922150E1F727E2803192073CF4BE0146
:100090006F5F7F4F4AE050E0D4D405C0CE01019697
:1000A00060E670E0C7D4DE011196FD0101900020EA
:1000B000E9F731978E2F8A1B002369F0E12FF0E0DA
:1000C000EF54FF4F00831F5FE12FF0E0EF54FF4F2D
:1000D0009AE3908301C011509E012F5F3F4FF901B9
:1000E000912F07C09F5F4191A92FB0E0AF54BF4F40
:1000F0004C934E2F421B4817A8F3180FE12FEF5FC8
:10010000F0E0EF54FF4F8CE28083812F8E5F0F90E1
:100110000F900F900F900F90DF91CF911F910F9143
:1001200008955D9BFECF8CB90895CF93DF93EC01CA
:1001300001C0F7DF89918823E1F7DF91CF9108951E
:10014000BF92CF92DF92EF92FF920F931F93CF93C4
:10015000DF938C0125E0E22EF12C20E0C0E1D7E214
:100160003AE0C32ED12CC801BE0100D4B62E6623BE
:1001700029F4222319F4C130D10521F48B2D805D9F
:10018000D0DF21E06B2D70E06C9FC0016D9F900D62
:100190007C9F900D1124081B190BCE01B601E6D3EC
:1001A000EB010894E108F108E114F104E1F6DF91B4
:1001B000CF911F910F91FF90EF90DF90CF90BF9064
:1001C0000895E82FF0E0E055FF4F8AE0808381EB4F
:1001D00090E0ABDFE1EBF0E082E311928150E9F7D0
:1001E000089589B7816089BF83B7846083BF08950C
:1001F00086B1856086B980EC87B9379A339A369A8A
:1002000008958FB580688FBD8EB580618EBD8EB527
:1002100081608EBD8AE491E097BD86BDB99A84E77E
:1002200090E09BBD8ABD0895BB9A85B5886485BD65
:1002300085B5806285BD85B5816085BD13BC089597
:100240008091A800813051F482E48A95F1F700C0D2
:1002500087E08093E40080EC87B9369A08951F9276
:100260000F920FB60F9211242F933F934F935F93EA
:100270006F937F938F939F93AF93BF93CF93EF939E
:10028000FF938091E300813039F4959A1092E30056
:10029000C091FA00C09507C0959881E08093E30073
:1002A000C091FA00C2BFC7FFCBDFC2BFFF91EF9181
:1002B000CF91BF91AF919F918F917F916F915F91FE
:1002C0004F913F912F910F900FBE0F901F90189557
:1002D00082E08093E40080EC87B9369A089580919B
:1002E000FB009091FC009093AE008093AD0088E0FD
:1002F0008093E400369A08958091AD009091AE000D
:100300002091FB003091FC00820F931F9093AE0070
:100310008093AD0089E08093E400369A089580913F
:10032000FB009091FC002091AD003091AE00820F57
:10033000931F63E070E01AD3CB016093AD009093FC
:10034000AE004091A70060E08ADE8093A70083E0C2
:100350008093E40082EC87B9369A08958091FB007F
:100360009091FC009093B0008093AF004091A70063
:1003700060E075DE8093A70084E08093E40082EC67
:1003800087B9C29A369A089584B195B1392F20E081
:1003900090E0822B932B08956091F7007091F80004
:1003A0008DEE90E04DEF50E0AAD1AA2797FDA095E1
:1003B000BA2F8F3F9105A105B10519F014F08FEF09
:1003C00005C0B7FF03C01092FA0008958093FA00A9
:1003D00008950F931F936091AF007091B00084ED6A
:1003E00092E045EE50E08BD19C01B901882777FD62
:1003F0008095982F24E030E040E050E0DED2890183
:100400009A010C581F4F2F4F3F4F053C11052105F6
:1004100031051CF084EC90E007C002331105210582
:1004200031052CF482E390E09BBD8ABD02C01BBD68
:100430000ABD8AB59BB54091A70060E010DE8093AD
:10044000A7001F910F910895AF92BF92CF92DF92B4
:10045000EF92FF920F931F93CF93DF93CDB7DEB749
:10046000E0970FB6F894DEBF0FBECDBFC298809163
:10047000FB009091FC009093AC008093AB00109235
:10048000E400A7DF8091AB009091AC002091AF0019
:100490003091B000821B930B8F3F910509F048F417
:1004A0002FEF30E0281B390B3093F8002093F70032
:1004B00004C01092F8001092F7008091F70090911C
:1004C000F800895E90408930910510F4949801C03D
:1004D000949ADE011196E6E7F0E080E301900D9238
:1004E0008150E1F7E090AD00F090AE0009811A81F3
:1004F000E016F10628F402C000E010E040E03FC042
:100500000DA51EA50E151F05B8F7F8CFDF01AA0F20
:10051000BB1FAA0FBB1F81E090E08C0F9D1FA80F8F
:10052000B91F6D917C911197E616F70638F1319657
:10053000EE0FFF1FEE0FFF1FE80FF91FC080D180E5
:10054000CE14DF04D8F01296AD90BC901397828140
:1005500093818A199B099701261B370B829FF00113
:10056000839FF00D929FF00D1124C601861B970BFF
:10057000BC01CF01FBD18B010A0D1B1D4F5FE42F86
:10058000F0E04B3019F64091A7008091F700909170
:10059000F80060E064DD8093A7004091A700C801E7
:1005A00060E05DDD8093A700C80164E670E0DED105
:1005B000CB01A0E0B0E080930F0190931001A093D5
:1005C0001101B093120163BD4091A70080910F010A
:1005D0009091100160E043DD8093A700DDDE809103
:1005E000A700EFDD8093A700E0960FB6F894DEBF7A
:1005F0000FBECDBFDF91CF911F910F91FF90EF9074
:10060000DF90CF90BF90AF9008951F920F920FB6DA
:100610000F9211242F933F934F935F936F937F9388
:100620008F939F93AF93BF93EF93FF93ADDE909320
:10063000FC008093FB008091E400873011F448DED9
:1006400023C08091E400823011F449DE1DC0809106
:10065000E400883011F450DE17C08091E400893046
:1006600011F45DDE11C08091E400833011F476DE78
:100670000BC08091E400843011F4E6DE05C084DE16
:100680009093FC008093FB00FF91EF91BF91AF919D
:100690009F918F917F916F915F914F913F912F919A
:1006A0000F900FBE0F901F901895CF93DF93FB0113
:1006B000E9011A821B821C821D82198218829F8383
:1006C0008E83798768875B874A87BC016F5F7F4F1E
:1006D0008FEF9FE75FD17D876C8731969F0144271D
:1006E00037FD4095542F6FEF7FEF80E090E065D1AC
:1006F0002E873F87488B598BDF91CF910895CF92FA
:10070000DF92EF92FF920F931F93CF93DF936B01D2
:10071000EA018C01061B170B8C859D8580179107BC
:1007200084F0909581959F4F081719077CF08E8172
:100730009F81089F7001099FF00C189FF00C1124F5
:1007400009C09FEFE92E9FE7F92E04C081E0E82E53
:1007500080E8F82E222717FD2095322F8A819B8171
:10076000AC81BD81080F191F2A1F3B1F8E859F85F5
:10077000A889B98980179107A207B3074CF48A8327
:100780009B83AC83BD834FEF5FEF60E070E024C0DC
:10079000B095A095909581959F4FAF4FBF4F08178B
:1007A00019072A073B074CF48A839B83AC83BD83DC
:1007B00041E050E06FEF7FEF0FC00A831B832C8373
:1007C0003D8368857985882777FD8095982FA901D5
:1007D0009801ADD0AB01BC01888199818C199D092C
:1007E0002A853B85829F8001839F100D929F100D6B
:1007F0001124D982C882C7016C01EE24D7FCE09491
:10080000FE2CCB01BA012EE130E040E050E0D5D023
:10081000C20ED31EE41EF51E222717FD2095322F8F
:10082000C00ED11EE21EF31EC701B60124E130E066
:1008300040E050E0C2D0C901DA01813020E89207DF
:100840002FEFA2072FEFB20724F481E090E8AFEF7B
:10085000BFEFAC01BD01403080E8580780E0680779
:1008600080E0780724F04FEF5FE760E070E0CA01B6
:10087000DF91CF911F910F91FF90EF90DF90CF907C
:100880000895FC011282138214821582089584B3A4
:10089000886384BB87B3816387BB8C9A8D9ABA9A2D
:1008A000F89410BC89E189B980B5866880BD8AB1A9
:1008B00088698AB954985798A4DCB6DC82EC91E038
:1008C00065E070E041E050E02DEF30E0EEDE8FE0DB
:1008D00090E06AE470E042E050E025EE30E0E5DED2
:1008E000789486DC82E88093FA007BDC949A8BE62D
:1008F00090E01BDC12C08F5F8093FA002FEB34ED89
:1009000041E0215030404040E1F700C0000090E05D
:1009100017DC8CE206DC80E204DC8091FA00883C83
:1009200050F38AE0FEDB81E08093A800FFCF629F56
:10093000D001739FF001829FE00DF11D649FE00DD7
:10094000F11D929FF00D839FF00D749FF00D659F38
:10095000F00D9927729FB00DE11DF91F639FB00D37
:10096000E11DF91FBD01CF0111240895AA1BBB1B76
:1009700051E107C0AA1FBB1FA617B70710F0A61B9F
:10098000B70B881F991F5A95A9F780959095BC01C0
:10099000CD01089597FB092E07260AD077FD04D0D4
:1009A000E5DF06D000201AF4709561957F4F089519
:1009B000F6F7909581959F4F089597FB092E052690
:1009C0000ED057FD04D014D00AD0001C38F4509536
:1009D0004095309521953F4F4F4F5F4F0895F6F763
:1009E00090958095709561957F4F8F4F9F4F08959B
:1009F000A1E21A2EAA1BBB1BFD010DC0AA1FBB1F23
:100A0000EE1FFF1FA217B307E407F50720F0A21B94
:100A1000B30BE40BF50B661F771F881F991F1A9401
:100A200069F760957095809590959B01AC01BD012B
:100A3000CF010895FB01DC0101900D920020E1F748
:100A40000895FB019F01E8944230BCF04532ACF4BC
:100A50004A3029F497FB1EF4909581959F4F642F9F
:100A6000772784DF805D8A330CF0895D8193CB0129
:100A70000097A9F716F45DE251931082C90100C0F6
:100A8000DC01FC01672F71917723E1F7329704C0F5
:100A90007C916D9370836291AE17BF07C8F3089580
:040AA000F894FFCFF8
:100AA4006F7665720000000000000072616D7020B6
:100AB40074656D700A00C8000000DA006400580212
:100AC40096006D02C8008202C40997028813AC0222
:100AD4004C1DBE021027D602D430EB02983A000314
:060AE4005C441F03D85919
:00000001FF
