:1000000012C02CC02BC02AC029C028C027C026C0BF
:1000100025C01EC123C022C021C020C061C31EC094
:100020001DC01CC01BC011241FBECFE5D4E0DEBF25
:10003000CDBF10E0A0E6B0E0E4E5FBE002C0059033
:100040000D92A23AB107D9F711E0A2EAB0E001C0DF
:100050001D92AB31B107E1F785D47AC5D1CFEF92CC
:10006000FF920F931F93CF93DF9300D000D000D067
:10007000CDB7DEB7E62EF42EDE011196E0E6F0E015
:1000800026E001900D922150E1F78E010F5F1F4F86
:10009000B8014AE050E038D5F80101900020E9F7B6
:1000A00031978E2F801BEE2069F0EF2DF0E0E355A5
:1000B000FF4FE082F394EF2DF0E0E355FF4F9AE31A
:1000C000908301C0FA949E012F5F3F4FF9019F2D4D
:1000D00007C09F5F4191A92FB0E0A355BF4F4C933C
:1000E0004E2F421B4817A8F38F0DE82FEF5FF0E06B
:1000F000E355FF4F9CE290838E5F26960FB6F894EF
:10010000DEBF0FBECDBFDF91CF911F910F91FF904A
:10011000EF9008955D9BFECF8CB90895CF93DF9348
:10012000EC0101C0F7DF89918823E1F7DF91CF91DE
:100130000895BF92CF92DF92EF92FF920F931F9399
:10014000CF93DF938C0125E0E22EF12C20E0C0E17B
:10015000D7E23AE0C32ED12CC801BE0171D4B62E2D
:10016000662329F4222319F4C130D10521F48B2D03
:10017000805DD0DF21E06B2D70E06C9FC0016D9F32
:10018000900D7C9F900D1124081B190BCE01B60118
:1001900057D4EB010894E108F108E114F104E1F609
:1001A000DF91CF911F910F91FF90EF90DF90CF9053
:1001B000BF900895E82FF0E0E455FF4F8AE0808378
:1001C0008DEA90E0ABDFEDEAF0E082E3119281503E
:1001D000E9F7089589B7816089BF83B7846083BFD9
:1001E000089586B1856086B980EC87B9379A339ACD
:1001F000369A08958FB580688FBD8EB580618EBDAB
:100200008EB581608EBD8AE491E097BD86BDB99AB6
:1002100084E790E09BBD8ABD0895BB9A85B588644C
:1002200085BD85B5806285BD85B5816085BD13BC02
:1002300008958091A400813051F482E48A95F1F709
:1002400000C087E08093E00080EC87B9369A08957B
:100250001F920F920FB60F9211242F933F934F933B
:100260005F936F937F938F939F93AF93BF93CF933E
:10027000EF93FF938091DF00813039F4959A1092CB
:10028000DF00C0910201C09507C0959881E080937E
:10029000DF00C0910201C2BFC7FFCBDFC2BFFF9129
:1002A000EF91CF91BF91AF919F918F917F916F917E
:1002B0005F914F913F912F910F900FBE0F901F9024
:1002C000189582E08093E00080EC87B9369A089513
:1002D00080910301909104019093AA008093A9005A
:1002E00088E08093E000369A08958091A90090916B
:1002F000AA002091030130910401820F931F909373
:10030000AA008093A90089E08093E000369A0895BE
:1003100080910301909104012091A9003091AA00DD
:10032000820F931F63E070E08BD3CB016093A90031
:100330009093AA004091A30060E091DE8093A30017
:1003400083E08093E00082EC87B9369A089580912B
:100350000301909104019093AC008093AB00409115
:10036000A30060E07CDE8093A30084E08093E00043
:1003700082EC87B9BA9A8AE18A95F1F700C0C29AED
:10038000369A089584B195B1392F20E090E0822B00
:10039000932B08956091F3007091F4008DEE90E03E
:1003A00045E051E017D2AA2797FDA095BA2F8F3FBD
:1003B0009105A105B10519F014F08FEF05C0B7FF45
:1003C00003C0109202010895809302010895609184
:1003D000AB007091AC0087E593E041EE50E0FAD1BC
:1003E000AA2797FDA095BA2F8C589F4FAF4FBF4FAC
:1003F000853C9105A105B1051CF084EC90E007C097
:1004000082339105A105B10514F482E390E09BBD10
:100410008ABD8AB59BB54091A30060E020DE809341
:10042000A3000895AF92BF92CF92DF92EF92FF9216
:100430000F931F93CF93DF93CDB7DEB7E0970FB63F
:10044000F894DEBF0FBECDBFC2984AE14A95F1F7DE
:1004500000C0BA9880910301909104019093A80084
:100460008093A7001092E000B2DF8091A7009091E6
:10047000A8002091AB003091AC00821B930B8F3F02
:10048000910509F048F42FEF30E0281B390B309329
:10049000F4002093F30004C01092F4001092F300D3
:1004A0008091F3009091F4009C01295E3040293046
:1004B000310510F4949801C0949A4091A30060E033
:1004C000CEDD8093A3004091FA005091FB00609133
:1004D000FC007091FD004093F6005093F70060938C
:1004E000F8007093F9008091FE009091FF00A091B8
:1004F0000001B09101018093FA009093FB00A0935A
:10050000FC00B093FD00E091A900F091AA008F01DA
:1005100020E030E00093FE001093FF0020930001E4
:1005200030930101840F951F8E0F9F1F63E070E0D1
:1005300087D28B017093AA006093A900DE01119607
:10054000E2E7F0E080E301900D928150E1F78981CC
:100550009A810817190740F4CB80DC800CC0CC24AA
:10056000DD24760120E046C08DA59EA58017910769
:10057000B0F7CFA4D8A8EE24FF24F4CFDC01AA0F53
:10058000BB1FAA0FBB1F41E050E04C0F5D1FA40F23
:10059000B51F6D917C9111970617170750F1FC015B
:1005A0003196EE0FFF1FEE0FFF1FE40FF51FA08027
:1005B000B180A016B106E8F01296CD90DC901397AA
:1005C000D801A61BB70B828193818C199D09A89F26
:1005D000A001A99F500DB89F500D1124C501861B85
:1005E000970BBC01CA012CD26C0D7D1D6B01EE2452
:1005F000FF242F5F822F90E02B3009F0BFCF409176
:10060000A300C60160E02BDD8093A300D701C601E3
:1006100080549040A040B04089349105A105B105B7
:1006200000F5C701B60120EF38EE46E250E0E9D10F
:1006300060507C438A4B994028E430E040E050E031
:1006400026D2CA01B90120E137E240E050E01FD2D2
:1006500020931701309318014093190150931A0108
:100660001BC099E8C916D104E104F10468F08FEFCA
:1006700090E0A0E0B0E08093170190931801A09360
:100680001901B0931A0108C01092170110921801B5
:100690001092190110921A018091170183BD4091A7
:1006A000A300809117019091180160E0D8DC80933D
:1006B000A30070DE8091A3007DDD8093A300E0960F
:1006C0000FB6F894DEBF0FBECDBFDF91CF911F9163
:1006D0000F91FF90EF90DF90CF90BF90AF90089573
:1006E0001F920F920FB60F9211242F933F934F93A7
:1006F0005F936F937F938F939F93AF93BF93EF938A
:10070000FF9340DE90930401809303018091E00009
:10071000873011F4D6DD23C08091E000823011F4DF
:10072000D7DD1DC08091E000883011F4DEDD17C0F8
:100730008091E000893011F4EBDD11C08091E00080
:10074000833011F404DE0BC08091E000843011F49A
:1007500069DE05C017DE9093040180930301FF91C9
:10076000EF91BF91AF919F918F917F916F915F9129
:100770004F913F912F910F900FBE0F901F901895A2
:10078000CF93DF93FB01E9011A821B821C821D8239
:10079000198218829F838E83798768875B874A874F
:1007A000BC016F5F7F4F8FEF9FE75ED17D876C87C6
:1007B00031969F01442737FD4095542F6FEF7FEF0F
:1007C00080E090E086D12E873F87488B598BDF9160
:1007D000CF910895CF92DF92EF92FF920F931F93E4
:1007E000CF93DF936B01EA018C01061B170B8C85FD
:1007F0009D858017910784F0909581959F4F0817EC
:1008000019077CF08E819F81089F7001099FF00C71
:10081000189FF00C112409C09FEFE92E9FE7F92ED5
:1008200004C081E0E82E80E8F82E222717FD2095ED
:10083000322F8A819B81AC81BD81080F191F2A1F2D
:100840003B1F8E859F85A889B98980179107A207CC
:10085000B3074CF48A839B83AC83BD834FEF5FEF78
:1008600060E070E024C0B095A095909581959F4F71
:10087000AF4FBF4F081719072A073B074CF48A836D
:100880009B83AC83BD8341E050E06FEF7FEF0FC0EF
:100890000A831B832C833D8368857985882777FDB0
:1008A0008095982FA9019801ACD0AB01BC0188813B
:1008B00099818C199D092A853B85829F8001839FA0
:1008C000100D929F100D1124D982C882C7016C01AE
:1008D000EE24D7FCE094FE2CCB01BA012EE130E0EF
:1008E00040E050E0F6D0C20ED31EE41EF51E2227D3
:1008F00017FD2095322FC00ED11EE21EF31EC70138
:10090000B60124E130E040E050E0E3D0C901DA0173
:10091000813020E892072FEFA2072FEFB20724F4CF
:1009200081E090E8AFEFBFEFAC01BD01403080E85F
:10093000580780E0680780E0780724F04FEF5FE712
:1009400060E070E0CA01DF91CF911F910F91FF909D
:10095000EF90DF90CF900895FC01128213821482F1
:100960001582089584B3886384BB87B3816387BB92
:100970008C9A8D9AF89410BC89E189B980B5866803
:1009800080BD8AB188698AB95498579833DC45DCB0
:100990008EE591E064E670E040E050E025E031E073
:1009A000EFDE84E090E06AE070E040E050E021EEAD
:1009B00030E0E6DE789415DC82E8809302010ADC00
:1009C000949A87E690E0AADB12C08F5F80930201C1
:1009D0002FEB34ED41E0215030404040E1F700C0C2
:1009E000000090E0A6DB8CE295DB80E293DB809157
:1009F0000201883C50F38AE08DDB81E08093A40003
:100A0000FFCF629FD001739FF001829FE00DF11D27
:100A1000649FE00DF11D929FF00D839FF00D749F78
:100A2000F00D659FF00D9927729FB00DE11DF91F24
:100A3000639FB00DE11DF91FBD01CF011124089581
:100A4000AA1BBB1B51E107C0AA1FBB1FA617B707F4
:100A500010F0A61BB70B881F991F5A95A9F7809510
:100A60009095BC01CD01089597FB092E07260AD069
:100A700077FD04D0E5DF06D000201AF4709561956B
:100A80007F4F0895F6F7909581959F4F0895A1E2C5
:100A90001A2EAA1BBB1BFD010DC0AA1FBB1FEE1FF8
:100AA000FF1FA217B307E407F50720F0A21BB30B43
:100AB000E40BF50B661F771F881F991F1A9469F7BF
:100AC00060957095809590959B01AC01BD01CF011B
:100AD000089597FB092E05260ED057FD04D0D7DFC9
:100AE0000AD0001C38F450954095309521953F4F21
:100AF0004F4F5F4F0895F6F79095809570956195EB
:100B00007F4F8F4F9F4F0895FB019F0142306CF044
:100B100045325CF4642F772793DF805D8A330CF0D5
:100B2000895D8193CB010097A9F71082C90100C0AC
:100B3000DC01FC01672F71917723E1F7329704C044
:100B40007C916D9370836291AE17BF07C8F30895CF
:040B5000F894FFCF47
:100B54000000000000000072616D702074656D700B
:100B64000A00C80000001801440088015000BA01BE
:100B74005500E8015A003202640068026E009D02CA
:100B84008F00C802AA000F03F200C003E84E00045D
:020B940090656A
:00000001FF
