:1000000012C02CC02BC02AC029C028C027C026C0BF
:1000100025C025C123C022C021C020C00AC31EC0E4
:100020001DC01CC01BC011241FBECFE5D4E0DEBF25
:10003000CDBF10E0A0E6B0E0ECECFAE002C0059025
:100040000D92AE3BB107D9F711E0AEEBB0E001C0C5
:100050001D92AB32B107E1F72ED436C5D1CF0F9345
:100060001F93CF93DF9300D000D00F92CDB7DEB7B0
:10007000062F142FDE011196E5E6F0E025E0019051
:100080000D922150E1F727E2803192073CF4BE0146
:100090006F5F7F4F4AE050E0E8D405C0CE01019683
:1000A00060E670E0DBD4DE011196FD0101900020D6
:1000B000E9F731978E2F8A1B002369F0E12FF0E0DA
:1000C000E753FF4F00831F5FE12FF0E0E753FF4F3F
:1000D0009AE3908301C011509E012F5F3F4FF901B9
:1000E000912F07C09F5F4191A92FB0E0A753BF4F49
:1000F0004C934E2F421B4817A8F3180FE12FEF5FC8
:10010000F0E0E753FF4F8CE28083812F8E5F0F90EA
:100110000F900F900F900F90DF91CF911F910F9143
:1001200008955D9BFECF8CB90895CF93DF93EC01CA
:1001300001C0F7DF89918823E1F7DF91CF9108951E
:10014000BF92CF92DF92EF92FF920F931F93CF93C4
:10015000DF938C0125E0E22EF12C20E0C0E1D7E214
:100160003AE0C32ED12CC801BE0114D4B62E6623AA
:1001700029F4222319F4C130D10521F48B2D805D9F
:10018000D0DF21E06B2D70E06C9FC0016D9F900D62
:100190007C9F900D1124081B190BCE01B601FAD3D8
:1001A000EB010894E108F108E114F104E1F6DF91B4
:1001B000CF911F910F91FF90EF90DF90CF90BF9064
:1001C0000895E82FF0E0E853FF4F8AE0808389EC40
:1001D00090E0ABDFE9ECF0E082E311928150E9F7C7
:1001E000089589B7816089BF83B7846083BF08950C
:1001F00086B1856086B980EC87B9379A339A369A8A
:1002000008958FB580688FBD8EB580618EBD8EB527
:1002100081608EBD8AE491E097BD86BDB99A84E77E
:1002200090E09BBD8ABD0895BB9A85B5886485BD65
:1002300085B5806285BD85B5816085BD13BC089597
:100240008091C000813051F482E48A95F1F700C0BA
:1002500087E08093FC0080EC87B9369A08951F925E
:100260000F920FB60F9211242F933F934F935F93EA
:100270006F937F938F939F93AF93BF93CF93EF939E
:10028000FF938091FB00813039F4959A1092FB0026
:10029000C0911201C09507C0959881E08093FB0042
:1002A000C0911201C2BFC7FFCBDFC2BFFF91EF9168
:1002B000CF91BF91AF919F918F917F916F915F91FE
:1002C0004F913F912F910F900FBE0F901F90189557
:1002D00082E08093FC0080EC87B9369A0895809183
:1002E0001301909114019093C6008093C50088E09B
:1002F0008093FC00369A08958091C5009091C600C5
:100300002091130130911401820F931F9093C60026
:100310008093C50089E08093FC00369A089580910F
:100320001301909114012091C5003091C600820FF5
:10033000931F63E070E02ED3CB016093C5009093D0
:10034000C6004091BF0060E08ADE8093BF0083E07A
:100350008093FC0082EC87B9369A0895809113014E
:10036000909114019093C8008093C7004091BF0002
:1003700060E075DE8093BF0084E08093FC0082EC37
:1003800087B9C29A369A089584B195B1392F20E081
:1003900090E0822B932B089560910F0170911001D2
:1003A0008DEE90E045E151E0BED1AA2797FDA095E2
:1003B000BA2F8F3F9105A105B10519F014F08FEF09
:1003C00005C0B7FF03C01092120108958093120177
:1003D00008950F931F936091C7007091C80084ED3A
:1003E00092E04DEF50E09FD19C01B901882777FD45
:1003F0008095982F24E030E040E050E014D389014C
:100400009A010C581F4F2F4F3F4F053C11052105F6
:1004100031051CF084EC90E007C002331105210582
:1004200031052CF482E390E09BBD8ABD02C01BBD68
:100430000ABD8AB59BB54091BF0060E010DE809395
:10044000BF001F910F9108954F925F926F927F921C
:100450008F929F92AF92BF92CF92DF92FF920F93B3
:100460001F93CF93DF93CDB7DEB7C854D0400FB6FC
:10047000F894DEBF0FBECDBFC2988091130190915A
:1004800014019093C4008093C3001092FC00A1DF7C
:100490008091C3009091C4002091C7003091C800A2
:1004A000821B930B8F3F910509F048F42FEF30E04A
:1004B000281B390B3093100120930F0104C01092B8
:1004C000100110920F0180910F0190911001895E2F
:1004D00090408930910510F4949801C0949ADE01FF
:1004E0001196E6E7F0E088E401900D928150E1F783
:1004F000C090C500D090C60009811A81C016D106EF
:1005000028F402C000E010E0FF244AC025960EAD9A
:100510001FAD25970C151D05A8F7F6CFFC01EE0FB2
:10052000FF1FE80FF91FEE0FFF1F21E030E02C0F37
:100530003D1FE20FF31FA080B180CA14DB0478F1E5
:100540000196DC01AA0FBB1FA80FB91FAA0FBB1F82
:10055000A20FB31F8D909C9011978C149D04F8F0FE
:100560004280538064807580C6018A199B09BC0152
:1005700080E090E012962D913D914D915C91159700
:100580002419350946095709E6D194012A193B096E
:1005900040E050E026D289019A01040D151DF39424
:1005A0008F2D90E03BE0F31609F0B8CF4091BF00EB
:1005B00080910F019091100160E051DD8093BF00A8
:1005C0004091BF00C80160E04ADD8093BF0020E099
:1005D00030E00093270110932801209329013093E4
:1005E0002A0103BD4091BF0080912701909128010D
:1005F00060E035DD8093BF00CFDE8091BF00E1DD9C
:100600008093BF00C85BDF4F0FB6F894DEBF0FBE0C
:10061000CDBFDF91CF911F910F91FF90DF90CF90D1
:10062000BF90AF909F908F907F906F905F904F9012
:1006300008951F920F920FB60F9211242F933F939C
:100640004F935F936F937F938F939F93AF93BF93DA
:10065000EF93FF9399DE909314018093130180919F
:10066000FC00873011F434DE23C08091FC0082301E
:1006700011F435DE1DC08091FC00883011F43CDEA1
:1006800017C08091FC00893011F449DE11C08091BF
:10069000FC00833011F462DE0BC08091FC008430DA
:1006A00011F4D2DE05C070DE909314018093130123
:1006B000FF91EF91BF91AF919F918F917F916F913A
:1006C0005F914F913F912F910F900FBE0F901F9010
:1006D0001895CF93DF93FB01E9011A821B821C82DC
:1006E0001D82198218829F838E83798768875B8732
:1006F0004A87BC016F5F7F4F8FEF9FE75FD17D8798
:100700006C8731969F01442737FD4095542F6FEF3A
:100710007FEF80E090E087D12E873F87488B598B11
:10072000DF91CF910895CF92DF92EF92FF920F93D6
:100730001F93CF93DF936B01EA018C01061B170B0C
:100740008C859D858017910784F0909581959F4FAA
:10075000081719077CF08E819F81089F7001099FFF
:10076000F00C189FF00C112409C09FEFE92E9FE7B1
:10077000F92E04C081E0E82E80E8F82E222717FD2C
:100780002095322F8A819B81AC81BD81080F191F72
:100790002A1F3B1F8E859F85A889B98980179107DD
:1007A000A207B3074CF48A839B83AC83BD834FEFCE
:1007B0005FEF60E070E024C0B095A09590958195C2
:1007C0009F4FAF4FBF4F081719072A073B074CF43D
:1007D0008A839B83AC83BD8341E050E06FEF7FEF62
:1007E0000FC00A831B832C833D8368857985882706
:1007F00077FD8095982FA9019801ADD0AB01BC0180
:10080000888199818C199D092A853B85829F800169
:10081000839F100D929F100D1124D982C882C701A9
:100820006C01EE24D7FCE094FE2CCB01BA012EE142
:1008300030E040E050E0F7D0C20ED31EE41EF51EBB
:10084000222717FD2095322FC00ED11EE21EF31E67
:10085000C701B60124E130E040E050E0E4D0C90136
:10086000DA01813020E892072FEFA2072FEFB207BD
:1008700024F481E090E8AFEFBFEFAC01BD01403060
:1008800080E8580780E0680780E0780724F04FEFA1
:100890005FE760E070E0CA01DF91CF911F910F9197
:1008A000FF90EF90DF90CF900895FC0112821382A9
:1008B00014821582089584B3886384BB87B38163EF
:1008C00087BB8C9A8D9ABA9AF89410BC89E189B941
:1008D00080B5866880BD8AB188698AB9549857986E
:1008E00090DCA2DC82EC91E065E070E041E050E059
:1008F00025E131E0EEDE8FE090E06AE470E042E076
:1009000050E02DEF30E0E5DE789472DC82E88093F1
:10091000120167DC949A8BE690E007DC12C08F5FCF
:10092000809312012FEB34ED41E0215030404040E4
:10093000E1F700C0000090E003DC8CE2F2DB80E233
:10094000F0DB80911201883C50F38AE0EADB81E021
:100950008093C000FFCF629FD001739FF001829F00
:10096000E00DF11D649FE00DF11D929FF00D839F3E
:10097000F00D749FF00D659FF00D9927729FB00DDB
:10098000E11DF91F639FB00DE11DF91FBD01CF01EE
:1009900011240895AA1BBB1B51E107C0AA1FBB1F4E
:1009A000A617B70710F0A61BB70B881F991F5A95FB
:1009B000A9F780959095BC01CD01089597FB092E6C
:1009C00007260AD077FD04D0E5DF06D000201AF410
:1009D000709561957F4F0895F6F7909581959F4F9B
:1009E0000895A1E21A2EAA1BBB1BFD010DC0AA1F70
:1009F000BB1FEE1FFF1FA217B307E407F50720F088
:100A0000A21BB30BE40BF50B661F771F881F991F02
:100A10001A9469F760957095809590959B01AC014B
:100A2000BD01CF01089597FB092E05260ED057FD75
:100A300004D0D7DF0AD0001C38F45095409530958B
:100A400021953F4F4F4F5F4F0895F6F79095809552
:100A5000709561957F4F8F4F9F4F0895FB01DC018B
:100A600001900D920020E1F70895FB019F01E894A9
:100A70004230BCF04532ACF44A3029F497FB1EF406
:100A8000909581959F4F642F772784DF805D8A330F
:100A90000CF0895D8193CB010097A9F716F45DE214
:100AA00051931082C90100C0DC01FC01672F7191D4
:100AB0007723E1F7329704C07C916D937083629144
:0C0AC000AE17BF07C8F30895F894FFCFED
:100ACC006F7665720000000000000072616D70208E
:100ADC0074656D700A00900100000000A9010F0000
:100AEC000000C2011E000000DB012D000000F4011B
:100AFC00440000000D025A0000002602780000009D
:100B0C003F02A50000005802E1000000710225011F
:0E0B1C0000008A0268010000D00232020000D0
:00000001FF
