:1000000012C02CC02BC02AC029C028C027C026C0BF
:1000100025C01EC123C022C021C020C00BC31EC0EA
:100020001DC01CC01BC011241FBECFE5D4E0DEBF25
:10003000CDBF10E0A0E6B0E0EAEAFAE002C0059029
:100040000D92A23AB107D9F711E0A2EAB0E001C0DF
:100050001D92AF30B107E1F72FD425C5D1CFEF9274
:10006000FF920F931F93CF93DF9300D000D000D067
:10007000CDB7DEB7E62EF42EDE011196E0E6F0E015
:1000800026E001900D922150E1F78E010F5F1F4F86
:10009000B8014AE050E0E3D4F80101900020E9F70C
:1000A00031978E2F801BEE2069F0EF2DF0E0E355A5
:1000B000FF4FE082F394EF2DF0E0E355FF4F9AE31A
:1000C000908301C0FA949E012F5F3F4FF9019F2D4D
:1000D00007C09F5F4191A92FB0E0A355BF4F4C933C
:1000E0004E2F421B4817A8F38F0DE82FEF5FF0E06B
:1000F000E355FF4F9CE290838E5F26960FB6F894EF
:10010000DEBF0FBECDBFDF91CF911F910F91FF904A
:10011000EF9008955D9BFECF8CB90895CF93DF9348
:10012000EC0101C0F7DF89918823E1F7DF91CF91DE
:100130000895BF92CF92DF92EF92FF920F931F9399
:10014000CF93DF938C0125E0E22EF12C20E0C0E17B
:10015000D7E23AE0C32ED12CC801BE011CD4B62E82
:10016000662329F4222319F4C130D10521F48B2D03
:10017000805DD0DF21E06B2D70E06C9FC0016D9F32
:10018000900D7C9F900D1124081B190BCE01B60118
:1001900002D4EB010894E108F108E114F104E1F65E
:1001A000DF91CF911F910F91FF90EF90DF90CF9053
:1001B000BF900895E82FF0E0E455FF4F8AE0808378
:1001C0008DEA90E0ABDFEDEAF0E082E3119281503E
:1001D000E9F7089589B7816089BF83B7846083BFD9
:1001E000089586B1856086B980EC87B9379A339ACD
:1001F000369A08958FB580688FBD8EB580618EBDAB
:100200008EB581608EBD8AE491E097BD86BDB99AB6
:1002100084E790E09BBD8ABD0895BB9A85B588644C
:1002200085BD85B5806285BD85B5816085BD13BC02
:1002300008958091A400813051F482E48A95F1F709
:1002400000C087E08093E00080EC87B9369A08957B
:100250001F920F920FB60F9211242F933F934F933B
:100260005F936F937F938F939F93AF93BF93CF933E
:10027000EF93FF938091DF00813039F4959A1092CB
:10028000DF00C091F600C09507C0959881E080938B
:10029000DF00C091F600C2BFC7FFCBDFC2BFFF9136
:1002A000EF91CF91BF91AF919F918F917F916F917E
:1002B0005F914F913F912F910F900FBE0F901F9024
:1002C000189582E08093E00080EC87B9369A089513
:1002D0008091F7009091F8009093AA008093A90074
:1002E00088E08093E000369A08958091A90090916B
:1002F000AA002091F7003091F800820F931F90938D
:10030000AA008093A90089E08093E000369A0895BE
:100310008091F7009091F8002091A9003091AA00F7
:10032000820F931F63E070E036D3CB016093A90086
:100330009093AA004091A30060E091DE8093A30017
:1003400083E08093E00082EC87B9369A089580912B
:10035000F7009091F8009093AC008093AB0040912F
:10036000A30060E07CDE8093A30084E08093E00043
:1003700082EC87B9C29A369A089584B195B1392F23
:1003800020E090E0822B932B08956091F300709110
:10039000F4008DEE90E049EF50E0C6D1AA2797FD1A
:1003A000A095BA2F8F3F9105A105B10519F014F062
:1003B0008FEF05C0B7FF03C01092F6000895809339
:1003C000F60008950F931F936091AB007091AC00FD
:1003D00084ED92E041EE50E0A7D19C01B90188275D
:1003E00077FD8095982F24E030E040E050E01CD36A
:1003F00089019A010C581F4F2F4F3F4F053C1105A3
:10040000210531051CF084EC90E007C00233110592
:10041000210531052CF482E390E09BBD8ABD02C02A
:100420001BBD0ABD8AB59BB54091A30060E017DEF5
:100430008093A3001F910F910895AF92BF92CF9226
:10044000DF92EF92FF920F931F93CF93DF93CDB77D
:10045000DEB7E0970FB6F894DEBF0FBECDBFC298EF
:100460008091F7009091F8009093A8008093A700E6
:100470001092E000A7DF8091A7009091A800209142
:10048000AB003091AC00821B930B8F3F910509F0BC
:1004900048F42FEF30E0281B390B3093F400209301
:1004A000F30004C01092F4001092F3008091F30066
:1004B0009091F4009C01295E30402930310510F400
:1004C000949801C0949A4091A30060E0C8DD8093A5
:1004D000A300DE011196E2E7F0E080E301900D92C7
:1004E0008150E1F70091A9001091AA00C980DA803B
:1004F0000C151D0530F40AC0CC24DD24760140E043
:1005000043C0CDA4DEA4C016D106B0F7EE24FF246C
:10051000F6CFDF01AA0FBB1FAA0FBB1F81E090E03F
:100520008C0F9D1FA80FB91F6D917C911197061715
:10053000170748F13196EE0FFF1FEE0FFF1FE80F70
:10054000F91FA080B180A016B106E8F01296CD90F8
:10055000DC901397828193818C199D099801261B49
:10056000370B829FF001839FF00D929FF00D1124B5
:10057000C501861B970BBC01CF010DD26C0D7D1DF3
:100580006B01EE24FF244F5FE42FF0E04B3009F6BF
:100590004091A300C60160E062DD8093A300C70123
:1005A000B6012DE030E040E050E0D6D128EE33E057
:1005B00040E050E017D289019A0100930B0110939B
:1005C0000C0120930D0130930E010F3F1105210501
:1005D000310560F08FEF90E0A0E0B0E080930B0178
:1005E00090930C01A0930D01B0930E0180910B012B
:1005F00083BD4091A30080910B0190910C0160E0BC
:100600002EDD8093A300C1DE8091A300D3DD809313
:10061000A300E0960FB6F894DEBF0FBECDBFDF910A
:10062000CF911F910F91FF90EF90DF90CF90BF90EF
:10063000AF9008951F920F920FB60F9211242F932F
:100640003F934F935F936F937F938F939F93AF935A
:10065000BF93EF93FF9391DE9093F8008093F700A0
:100660008091E000873011F42CDE23C08091E000FF
:10067000823011F42DDE1DC08091E000883011F42D
:1006800034DE17C08091E000893011F441DE11C0E2
:100690008091E000833011F45ADE0BC08091E000BD
:1006A000843011F4CADE05C068DE9093F8008093B0
:1006B000F700FF91EF91BF91AF919F918F917F9143
:1006C0006F915F914F913F912F910F900FBE0F90BF
:1006D0001F901895CF93DF93FB01E9011A821B82CB
:1006E0001C821D82198218829F838E837987688776
:1006F0005B874A87BC016F5F7F4F8FEF9FE75FD1BA
:100700007D876C8731969F01442737FD4095542F94
:100710006FEF7FEF80E090E087D12E873F87488B97
:10072000598BDF91CF910895CF92DF92EF92FF9294
:100730000F931F93CF93DF936B01EA018C01061B8C
:10074000170B8C859D858017910784F09095819576
:100750009F4F081719077CF08E819F81089F7001B9
:10076000099FF00C189FF00C112409C09FEFE92E8F
:100770009FE7F92E04C081E0E82E80E8F82E2227BA
:1007800017FD2095322F8A819B81AC81BD81080F96
:10079000191F2A1F3B1F8E859F85A889B98980173D
:1007A0009107A207B3074CF48A839B83AC83BD8374
:1007B0004FEF5FEF60E070E024C0B095A09590959A
:1007C00081959F4FAF4FBF4F081719072A073B0767
:1007D0004CF48A839B83AC83BD8341E050E06FEF90
:1007E0007FEF0FC00A831B832C833D836885798547
:1007F000882777FD8095982FA9019801ADD0AB018E
:10080000BC01888199818C199D092A853B85829F2D
:100810008001839F100D929F100D1124D982C882F0
:10082000C7016C01EE24D7FCE094FE2CCB01BA0189
:100830002EE130E040E050E0F7D0C20ED31EE41EBF
:10084000F51E222717FD2095322FC00ED11EE21E65
:10085000F31EC701B60124E130E040E050E0E4D0EF
:10086000C901DA01813020E892072FEFA2072FEFAC
:10087000B20724F481E090E8AFEFBFEFAC01BD0117
:10088000403080E8580780E0680780E0780724F06F
:100890004FEF5FE760E070E0CA01DF91CF911F91F9
:1008A0000F91FF90EF90DF90CF900895FC0112829E
:1008B000138214821582089584B3886384BB87B33E
:1008C000816387BB8C9A8D9ABA9AF89410BC89E19F
:1008D00089B980B5866880BD8AB188698AB954981B
:1008E000579888DC9ADC82EC91E065E070E041E0AA
:1008F00050E029EF30E0EEDE8FE090E06AE470E057
:1009000042E050E021EE30E0E5DE78946ADC82E8F7
:100910008093F6005FDC949A87E690E0FFDB12C0DC
:100920008F5F8093F6002FEB34ED41E02150304093
:100930004040E1F700C0000090E0FBDB8CE2EADB26
:1009400080E2E8DB8091F600883C50F38AE0E2DB4D
:1009500081E08093A400FFCF629FD001739FF001DC
:10096000829FE00DF11D649FE00DF11D929FF00D3F
:10097000839FF00D749FF00D659FF00D9927729F76
:10098000B00DE11DF91F639FB00DE11DF91FBD0101
:10099000CF0111240895AA1BBB1B51E107C0AA1F58
:1009A000BB1FA617B70710F0A61BB70B881F991F10
:1009B0005A95A9F780959095BC01CD01089597FBB4
:1009C000092E07260AD077FD04D0E5DF06D00020E7
:1009D0001AF4709561957F4F0895F6F7909581957B
:1009E0009F4F0895A1E21A2EAA1BBB1BFD010DC04B
:1009F000AA1FBB1FEE1FFF1FA217B307E407F507CF
:100A000020F0A21BB30BE40BF50B661F771F881FAA
:100A1000991F1A9469F760957095809590959B0140
:100A2000AC01BD01CF01089597FB092E05260ED01C
:100A300057FD04D0D7DF0AD0001C38F450954095FC
:100A4000309521953F4F4F4F5F4F0895F6F79095A2
:100A50008095709561957F4F8F4F9F4F0895FB0153
:100A60009F0142306CF045325CF4642F772793DFAE
:100A7000805D8A330CF0895D8193CB010097A9F7E3
:100A80001082C90100C0DC01FC01672F719177233E
:100A9000E1F7329704C07C916D9370836291AE1739
:0A0AA000BF07C8F30895F894FFCFD4
:100AAA000000000000000072616D702074656D70B6
:100ABA000A00C800000004014400580296006D02B2
:100ACA00C8008202C40997028813AC024C1DBE02F8
:100ADA00F82AD602BC34EB02803EF802E84E1F0325
:020AEA00D859D9
:00000001FF
