:1000000012C02CC02BC02AC029C028C027C026C0BF
:1000100025C01EC123C022C021C020C0A9C41EC04B
:100020001DC01CC01BC011241FBECFE5D4E0DEBF25
:10003000CDBF10E0A0E6B0E0E4EEFDE002C0059028
:100040000D92A23AB107D9F711E0A2EAB0E001C0DF
:100050001D92AB34B107E1F7CDD5C2C6D1CFEF9237
:10006000FF920F931F93CF93DF9300D000D000D067
:10007000CDB7DEB7E62EF42EDE011196E0E6F0E015
:1000800026E001900D922150E1F78E010F5F1F4F86
:10009000B8014AE050E080D6F80101900020E9F76D
:1000A00031978E2F801BEE2069F0EF2DF0E0EB549E
:1000B000FF4FE082F394EF2DF0E0EB54FF4F9AE313
:1000C000908301C0FA949E012F5F3F4FF9019F2D4D
:1000D00007C09F5F4191A92FB0E0AB54BF4F4C9335
:1000E0004E2F421B4817A8F38F0DE82FEF5FF0E06B
:1000F000EB54FF4F9CE290838E5F26960FB6F894E8
:10010000DEBF0FBECDBFDF91CF911F910F91FF904A
:10011000EF9008955D9BFECF8CB90895CF93DF9348
:10012000EC0101C0F7DF89918823E1F7DF91CF91DE
:100130000895BF92CF92DF92EF92FF920F931F9399
:10014000CF93DF938C0125E0E22EF12C20E0C0E17B
:10015000D7E23AE0C32ED12CC801BE01B9D5B62EE4
:10016000662329F4222319F4C130D10521F48B2D03
:10017000805DD0DF21E06B2D70E06C9FC0016D9F32
:10018000900D7C9F900D1124081B190BCE01B60118
:100190009FD5EB010894E108F108E114F104E1F6C0
:1001A000DF91CF911F910F91FF90EF90DF90CF9053
:1001B000BF900895E82FF0E0EC54FF4F8AE0808371
:1001C00085EB90E0ABDFE5EBF0E082E3119281504C
:1001D000E9F7089589B7816089BF83B7846083BFD9
:1001E000089586B1856086B980EC87B9379A339ACD
:1001F000369A08958FB580688FBD8EB580618EBDAB
:100200008EB581608EBD8AE491E097BD86BDB99AB6
:1002100084E790E09BBD8ABD0895BB9A85B588644C
:1002200085BD85B5806285BD85B5816085BD13BC02
:1002300008958091A600813051F482E48A95F1F707
:1002400000C087E08093E80081EC87B9369A089572
:100250001F920F920FB60F9211242F933F934F933B
:100260005F936F937F938F939F93AF93BF93CF933E
:10027000EF93FF938091E700813039F4959A1092C3
:10028000E700C0913201C09507C0959881E0809346
:10029000E700C0913201C2BFC7FFCBDFC2BFFF91F1
:1002A000EF91CF91BF91AF919F918F917F916F917E
:1002B0005F914F913F912F910F900FBE0F901F9024
:1002C00018954091A500809133019091340160E030
:1002D000C6DE8093A50082E08093E80080EC87B9B9
:1002E000369A089580913301909134019093AC0037
:1002F0008093AB0088E08093E800369A089580915F
:10030000AB009091AC002091330130913401820F09
:10031000931F9093AC008093AB0089E08093E8003A
:10032000369A089580913301909134012091AB0069
:100330003091AC00820F931F63E070E0C9D4CB0111
:100340006093AB009093AC004091A50060E087DE25
:100350008093A50083E08093E80082EC87B9369A09
:10036000089584B195B1392F20E090E0822B932B32
:1003700008956091FB007091FC008DEE90E045E3E4
:1003800051E070D3AA2797FDA095BA2F8F3F910512
:10039000A105B10519F014F08FEF05C0B7FF03C038
:1003A0001092320108958093320108956091AD005A
:1003B0007091AE0085E393E049EE50E053D3AC0179
:1003C000662757FD6095762FDB01CA018F599F4F35
:1003D000AF4FBF4F405150406040704043315105D6
:1003E0006105710508F090C02091A200222371F4EC
:1003F0008B379105A105B1054CF024E830E030932E
:10040000B0002093AF0021E02093A2002091A20031
:10041000222379F48B379105A105B10554F480E7C7
:1004200090E09093B0008093AF0082E08093A200B0
:1004300024C08091B1009091B200A091B300B0911E
:10044000B4000196A11DB11D8093B1009093B2003C
:10045000A093B300B093B40085369105A105B10512
:1004600060F085E090E0A0E0B0E08093B100909370
:10047000B200A093B300B093B4008091B10090910A
:10048000B200A091B300B091B40084309105A105F1
:10049000B10599F58091A300882319F58091A200F8
:1004A000823049F48091AF009091B0000196909312
:1004B000B0008093AF008091A200813049F4809118
:1004C000AF009091B00001979093B0008093AF007F
:1004D0001092B1001092B2001092B3001092B400CA
:1004E0000CC085E090E0A0E0B0E08093B100909374
:1004F000B200A093B300B093B4008091AF0090918C
:10050000B000A0E0B0E002C01092A2008A3421E066
:10051000920720E0A20720E0B2071CF089E491E0F6
:1005200005C0B7FF03C01BBC1ABC02C09BBD8ABD7F
:100530008AB59BB54091A50060E091DD8093A50050
:1005400008950F931F93CF93DF939C01CDEFD0E0DD
:10055000FE0149E084819581A681B78181939193C1
:10056000A193B1934150B1F7C901A0E0B0E08093ED
:10057000210190932201A0932301B093240140E034
:1005800050E000E010E0E0E0F0E060E070E0899131
:100590009991A991B991680F791F489F9001499F3E
:1005A000300D589F300D1124E20FF31F449FC001FE
:1005B000459F900D549F900D1124080F191F4F5FF8
:1005C0005F4F4A30510519F78DE290E0689F900126
:1005D000699F300D789F300D112446EF5FEFE49F47
:1005E000C001E59F900DF49F900D1124280F391F35
:1005F000049FB001059F700D149F700D1124675169
:10060000784FC90179D3CB0177FF03C090958195CD
:100610009F4FDF91CF911F910F91089580913301EA
:10062000909134019093AE008093AD004091A5006D
:1006300060E015DD8093A5008091AD009091AE0043
:1006400080DF4091A50090E060E009DD8093A50087
:100650008091AD009091AE00A9DE84E08093E80027
:1006600082EC87B9BA9A8AE18A95F1F700C0C29AFA
:10067000369A0895662351F540912A0150912B0135
:1006800060912C0170912D01409326015093270118
:10069000609328017093290140912E0150912F0100
:1006A000609130017091310140932A0150932B01E8
:1006B00060932C0170932D01A0E0B0E080932E0197
:1006C00090932F01A0933001B093310180912A01C2
:1006D00090912B01A0912C01B0912D014091260108
:1006E000509127016091280170912901840F951F75
:1006F000A61FB71F40912E0150912F01609130012C
:1007000070913101840F951FA61FB71FBC01CD0149
:1007100023E030E040E050E002D3C9010895AF92F9
:10072000BF92CF92DF92EF92FF920F931F93CF93DE
:10073000DF93CDB7DEB7E0970FB6F894DEBF0FBEFC
:10074000CDBFC2984AE14A95F1F700C0BA9820910E
:100750003301309134013093AA002093A900109204
:10076000E8008091AD009091AE00281B390B2F3F1F
:10077000310509F048F48FEF90E0821B930B9093C2
:10078000FC008093FB0004C01092FC001092FB0060
:100790008091FB009091FC009C01295E3040293043
:1007A000310510F4949801C0949A4091A50060E03E
:1007B00056DC8093A5008091AB009091AC0060E086
:1007C00059DF8C019093AC008093AB00DE01119651
:1007D000E2E7F0E080E301900D928150E1F789813A
:1007E0009A810817190740F4CB80DC800CC0CC2418
:1007F000DD24760120E046C08DA59EA580179107D7
:10080000B0F7CFA4D8A8EE24FF24F4CFDC01AA0FC0
:10081000BB1FAA0FBB1F41E050E04C0F5D1FA40F90
:10082000B51F6D917C9111970617170750F1FC01C8
:100830003196EE0FFF1FEE0FFF1FE40FF51FA08094
:10084000B180A016B106E8F01296CD90DC90139717
:10085000D801A61BB70B828193818C199D09A89F93
:10086000A001A99F500DB89F500D1124C501861BF2
:10087000970BBC01CA012CD26C0D7D1D6B01EE24BF
:10088000FF242F5F822F90E02B3009F0BFCF4091E3
:10089000A500C60160E0E3DB8093A500D701C60197
:1008A00080549040A040B04089349105A105B10525
:1008B00000F5C701B60120EF38EE46E250E0E9D17D
:1008C00060507C438A4B994028E430E040E050E09F
:1008D00026D2CA01B90120E137E240E050E01FD240
:1008E00020934701309348014093490150934A01B6
:1008F0001BC099E8C916D104E104F10468F08FEF38
:1009000090E0A0E0B0E08093470190934801A0936D
:100910004901B0934A0108C0109247011092480162
:100920001092490110924A018091470183BD409184
:10093000A500809147019091480160E090DB809391
:10094000A50017DD8091A50035DC8093A500E09619
:100950000FB6F894DEBF0FBECDBFDF91CF911F91D0
:100960000F91FF90EF90DF90CF90BF90AF900895E0
:100970001F920F920FB60F9211242F933F934F9314
:100980005F936F937F938F939F93AF93BF93EF93F7
:10099000FF93E7DC90933401809333018091E8006A
:1009A000873011F48EDC23C08091E800823011F48E
:1009B00099DC1DC08091E800883011F4A0DC17C0DC
:1009C0008091E800893011F4ADDC11C08091E8001D
:1009D000833011F423DE0BC08091E800843011F4E1
:1009E0009EDE05C0BEDC9093340180933301FF91FD
:1009F000EF91BF91AF919F918F917F916F915F9197
:100A00004F913F912F910F900FBE0F901F9018950F
:100A1000CF93DF93FB01E9011A821B821C821D82A6
:100A2000198218829F838E83798768875B874A87BC
:100A3000BC016F5F7F4F8FEF9FE75ED17D876C8733
:100A400031969F01442737FD4095542F6FEF7FEF7C
:100A500080E090E086D12E873F87488B598BDF91CD
:100A6000CF910895CF92DF92EF92FF920F931F9351
:100A7000CF93DF936B01EA018C01061B170B8C856A
:100A80009D858017910784F0909581959F4F081759
:100A900019077CF08E819F81089F7001099FF00CDF
:100AA000189FF00C112409C09FEFE92E9FE7F92E43
:100AB00004C081E0E82E80E8F82E222717FD20955B
:100AC000322F8A819B81AC81BD81080F191F2A1F9B
:100AD0003B1F8E859F85A889B98980179107A2073A
:100AE000B3074CF48A839B83AC83BD834FEF5FEFE6
:100AF00060E070E024C0B095A095909581959F4FDF
:100B0000AF4FBF4F081719072A073B074CF48A83DA
:100B10009B83AC83BD8341E050E06FEF7FEF0FC05C
:100B20000A831B832C833D8368857985882777FD1D
:100B30008095982FA9019801ACD0AB01BC018881A8
:100B400099818C199D092A853B85829F8001839F0D
:100B5000100D929F100D1124D982C882C7016C011B
:100B6000EE24D7FCE094FE2CCB01BA012EE130E05C
:100B700040E050E0F6D0C20ED31EE41EF51E222740
:100B800017FD2095322FC00ED11EE21EF31EC701A5
:100B9000B60124E130E040E050E0E3D0C901DA01E1
:100BA000813020E892072FEFA2072FEFB20724F43D
:100BB00081E090E8AFEFBFEFAC01BD01403080E8CD
:100BC000580780E0680780E0780724F04FEF5FE780
:100BD00060E070E0CA01DF91CF911F910F91FF900B
:100BE000EF90DF90CF900895FC011282138214825F
:100BF0001582089584B3886384BB87B3816387BB00
:100C00008C9A8D9AF89410BC89E189B980B5866870
:100C100080BD8AB188698AB954985798EBDAFDDAB1
:100C20008EE591E064E670E040E050E025E331E0DD
:100C3000EFDE84E090E06AE070E040E050E029EE12
:100C400030E0E6DE7894CDDA82E880933201C2DAD1
:100C5000949A87E690E062DA12C08F5F8093320147
:100C60002FEB34ED41E0215030404040E1F700C02F
:100C7000000090E05EDA8CE24DDA80E24BDA80919F
:100C80003201883C50F38AE045DA81E08093A60087
:100C9000FFCF629FD001739FF001829FE00DF11D95
:100CA000649FE00DF11D929FF00D839FF00D749FE6
:100CB000F00D659FF00D9927729FB00DE11DF91F92
:100CC000639FB00DE11DF91FBD01CF0111240895EF
:100CD000AA1BBB1B51E107C0AA1FBB1FA617B70762
:100CE00010F0A61BB70B881F991F5A95A9F780957E
:100CF0009095BC01CD01089597FB092E07260AD0D7
:100D000077FD04D0E5DF06D000201AF470956195D8
:100D10007F4F0895F6F7909581959F4F0895A1E232
:100D20001A2EAA1BBB1BFD010DC0AA1FBB1FEE1F65
:100D3000FF1FA217B307E407F50720F0A21BB30BB0
:100D4000E40BF50B661F771F881F991F1A9469F72C
:100D500060957095809590959B01AC01BD01CF0188
:100D6000089597FB092E05260ED057FD04D0D7DF36
:100D70000AD0001C38F450954095309521953F4F8E
:100D80004F4F5F4F0895F6F7909580957095619558
:100D90007F4F8F4F9F4F0895FB019F0142306CF0B2
:100DA00045325CF4642F772793DF805D8A330CF043
:100DB000895D8193CB010097A9F71082C90100C01A
:100DC000DC01FC01672F71917723E1F7329704C0B2
:100DD0007C916D9370836291AE17BF07C8F308953D
:040DE000F894FFCFB5
:100DE4000000000000000072616D702074656D7079
:100DF4000A0001000000E00144003A0250006202CF
:100E040055008A025A00B2026400BC026E00EE026F
:100E14008F001B03AA002A03F2004D03E84E0004CE
:020E24009065D7
:00000001FF
