:1000000012C02CC02BC02AC029C028C027C026C0BF
:1000100025C029C123C022C021C020C0CAC41EC01F
:100020001DC01CC01BC011241FBECFE5D4E0DEBF25
:10003000CDBF10E0A0E6B0E0E6E2FEE002C0059031
:100040000D92A23AB107D9F711E0A2EAB0E001C0DF
:100050001D92A932B107E1F7EED5E3C6D1CFEF92F9
:10006000FF920F931F93CF93DF9300D000D000D067
:10007000CDB7DEB7E62EF42EDE011196E0E6F0E015
:1000800026E001900D922150E1F78E010F5F1F4F86
:10009000B8014AE050E0A1D6F80101900020E9F74C
:1000A00031978E2F801BEE2069F0EF2DF0E0E954A0
:1000B000FF4FE082F394EF2DF0E0E954FF4F9AE315
:1000C000908301C0FA949E012F5F3F4FF9019F2D4D
:1000D00007C09F5F4191A92FB0E0A954BF4F4C9337
:1000E0004E2F421B4817A8F38F0DE82FEF5FF0E06B
:1000F000E954FF4F9CE290838E5F26960FB6F894EA
:10010000DEBF0FBECDBFDF91CF911F910F91FF904A
:10011000EF9008955D9BFECF8CB90895CF93DF9348
:10012000EC0101C0F7DF89918823E1F7DF91CF91DE
:100130000895BF92CF92DF92EF92FF920F931F9399
:10014000CF93DF938C0125E0E22EF12C20E0C0E17B
:10015000D7E23AE0C32ED12CC801BE01DAD5B62EC3
:10016000662329F4222319F4C130D10521F48B2D03
:10017000805DD0DF21E06B2D70E06C9FC0016D9F32
:10018000900D7C9F900D1124081B190BCE01B60118
:10019000C0D5EB010894E108F108E114F104E1F69F
:1001A000DF91CF911F910F91FF90EF90DF90CF9053
:1001B000BF900895E82FF0E0EA54FF4F8AE0808373
:1001C00087EB90E0ABDFE7EBF0E082E31192815048
:1001D000E9F7089589B7816089BF83B7846083BFD9
:1001E000089586B1856086B980EC87B9379A339ACD
:1001F000369A08958FB580688FBD8EB580618EBDAB
:100200008EB581608EBD8AE491E097BD86BDB99AB6
:1002100084E790E09BBD8ABD0895BB9A85B588644C
:1002200085BD85B5806285BD85B5816085BD13BC02
:1002300008958091AA008130A9F48091A8008F5F71
:100240008093A8008091A800843060F01092A800EC
:1002500082E48A95F1F700C087E08093EA0081ECA0
:1002600087B9369A08951F920F920FB60F921124F4
:100270002F933F934F935F936F937F938F939F93AE
:10028000AF93BF93CF93EF93FF938091E9008130B9
:1002900039F4959A1092E900C0910801C09507C001
:1002A000959881E08093E900C0910801C2BFC7FF23
:1002B000C0DFC2BFFF91EF91CF91BF91AF919F91EE
:1002C0008F917F916F915F914F913F912F910F90FF
:1002D0000FBE0F901F9018954091A90080910901C1
:1002E00090910A0160E0BBDE8093A90082E08093D8
:1002F000EA0080EC87B9369A0895809109019091BF
:100300000A019093AE008093AD0088E08093EA00EC
:10031000369A08958091AD009091AE002091090128
:1003200030910A01820F931F9093AE008093AD002D
:1003300089E08093EA00369A08958091AD0090910B
:10034000AE002091090130910A01820F931F909312
:10035000AE008093AD008091AD009091AE0063E05F
:1003600070E0D7D47093AE006093AD008091AD0083
:100370009091AE004091A90060E071DE8093A900E9
:1003800083E08093EA0082EC87B9369A08958091E1
:10039000090190910A019093B0008093AF00809181
:1003A000AF009091B0004091A90060E058DE8093CA
:1003B000A90084E08093EA0082EC87B9BA9A8AE1C6
:1003C0008A95F1F700C0C29A369A089584B195B122
:1003D000392F20E090E0822B932B08956091FD004F
:1003E0007091FE008DEE90E043E151E05CD3AA27CE
:1003F00097FDA095BA2F8F3F9105A105B10519F082
:1004000014F08FEF05C0B7FF03C0109208010895E4
:100410008093080108956091AF007091B00085E36A
:1004200093E04BEE50E03FD3AA2797FDA095BA2F5B
:100430008F599F4FAF4FBF4F8A3421E0920720E082
:10044000A20720E0B2071CF089E491E005C0B7FFE5
:1004500003C01BBC1ABC08959BBD8ABD08952091A2
:10046000010130910201E1E0F1E032932293248115
:100470003581309302012093010126813781358334
:10048000248397838683089583E091E0209103017C
:10049000309104013093060120930501FC0132974D
:1004A0002081318130930401209303010497DC0102
:1004B0008D919C9111979183808308950F931F9341
:1004C000CF93DF9341E050E000E010E0C0E0D0E0E7
:1004D000A0E0B0E060E070E0FA01EE0FFF1FE15035
:1004E000FF4F80819181680F791F80819181849F66
:1004F0009001859F300D949F300D1124A20FB31FE2
:10050000449FC001459F900D549F900D1124C80F2A
:10051000D91F80819181080F191F4F5F5F4F4430B1
:100520005105D1F69B01220F331F260F371F220FD3
:10053000331FCD01880F991F8A0F9B1F281B390B72
:10054000BE01660F771F6C0F7D1F709561957F4F01
:100550006C5D7F4FC901F1D39B01C80163E070E07E
:10056000D8D3260F371FC901DF91CF911F910F916B
:10057000089520910D0130910E01EDE0F1E03293EC
:1005800022932481358130930E0120930D01268121
:100590003781358324839783868308958FE091E0A4
:1005A00020910F013091100130931201209311011D
:1005B000FC013297208131813093100120930F018B
:1005C0000497DC018D919C9111979183808308950C
:1005D0000F931F93CF93DF9341E050E000E010E0D2
:1005E000C0E0D0E0A0E0B0E060E070E0FA01EE0F23
:1005F000FF1FE55FFE4F80819181680F791F808129
:100600009181849F9001859F300D949F300D11241E
:10061000A20FB31F449FC001459F900D549F900DA2
:100620001124C80FD91F80819181080F191F4F5FB6
:100630005F4F44305105D1F69B01220F331F260F27
:10064000371F220F331FCD01880F991F8A0F9B1F61
:10065000281B390BBE01660F771F6C0F7D1F70952D
:1006600061957F4F6C5D7F4FC90167D39B01C801C6
:1006700063E070E04ED3260F371FC901DF91CF91A1
:100680001F910F910895AF92BF92CF92DF92EF9298
:10069000FF920F931F93CF93DF93CDB7DEB7E09711
:1006A0000FB6F894DEBF0FBECDBFC2982AE12A95DF
:1006B000F1F700C0BA982091090130910A013093F6
:1006C000AC002093AB001092EA008091AF009091B3
:1006D000B000281B390B2F3F310509F048F48FEF8C
:1006E00090E0821B930B9093FE008093FD0004C06A
:1006F0001092FE001092FD008091FD009091FE008E
:100700009C01295E30402930310510F4949801C0D5
:10071000949A4091A90060E0A2DC8093A9008091A6
:10072000A7004091A90090E060E099DC8093A900C7
:100730008091AD009091AE001CDF8091AF00909150
:10074000B0008DDE8091A7008823D1F48091010153
:10075000909102012091AF003091B000821B930B69
:1007600097FF03C0909581959F4F8F319105ACF114
:1007700081E08093A70012DF87DEA0DE8C0137C006
:100780008091A2008F5F8093A2007EDE97DE8C01B5
:100790008091AF009091B000A801481B590BCA018D
:1007A00057FF03C0909581959F4F8A30910524F0A3
:1007B0008091A2008B30D0F08091AF009091B0007A
:1007C0008091AD009091AE008091AF009091B0000B
:1007D00046DE1092A7001092A2000091AF00109187
:1007E000B000A090AD00B090AE0003C0D7DEF0DE48
:1007F0005C01C80110DE8AB59BB54091A90060E09C
:100800002EDC8093A9004091A900C80160E027DC9C
:100810008093A9004091A900C50160E020DC80938D
:10082000A900DE011196E2E7F0E080E301900D926D
:100830008150E1F789819A81A816B90640F4CB80EE
:10084000DC800CC0CC24DD24760120E046C08DA5E0
:100850009EA58A159B05B0F7CFA4D8A8EE24FF2447
:10086000F4CFDC01AA0FBB1FAA0FBB1F41E050E071
:100870004C0F5D1FA40FB51F6D917C911197A616AB
:10088000B70650F1FC013196EE0FFF1FEE0FFF1F70
:10089000E40FF51F008111810A151B05E8F012967F
:1008A000CD90DC901397D501A61BB70B8281938165
:1008B0008C199D09A89FA001A99F500DB89F500DAC
:1008C0001124C801861B970BBC01CA0122D26C0DF2
:1008D0007D1D6B01EE24FF242F5F822F90E02B30D3
:1008E00009F0BFCF4091A900C60160E0B8DB80935A
:1008F000A900D701C60180549040A040B04089347F
:100900009105A105B10500F5C701B60120EF38EE4C
:1009100046E250E0DFD160507C438A4B994028E4A6
:1009200030E040E050E01CD2CA01B90120E137E2DA
:1009300040E050E015D220932501309326014093EA
:100940002701509328011BC099E8C916D104E1047E
:10095000F10468F08FEF90E0A0E0B0E08093250113
:1009600090932601A0932701B093280108C010920C
:1009700025011092260110922701109228018091E2
:10098000250183BD2BDD8091A90014DC8093A90093
:10099000E0960FB6F894DEBF0FBECDBFDF91CF91CA
:1009A0001F910F91FF90EF90DF90CF90BF90AF908D
:1009B00008951F920F920FB60F9211242F933F9319
:1009C0004F935F936F937F938F939F93AF93BF9357
:1009D000EF93FF93FBDC90930A01809309018091D0
:1009E000EA00873011F478DC23C08091EA0082307D
:1009F00011F483DC1DC08091EA00883011F48ADC98
:100A000017C08091EA00893011F497DC11C0809101
:100A1000EA00833011F4BBDC0BC08091EA00843023
:100A200011F431DE05C0D2DC90930A0180930901F4
:100A3000FF91EF91BF91AF919F918F917F916F91B6
:100A40005F914F913F912F910F900FBE0F901F908C
:100A50001895CF93DF93FB01E9011A821B821C8258
:100A60001D82198218829F838E83798768875B87AE
:100A70004A87BC016F5F7F4F8FEF9FE75ED17D8715
:100A80006C8731969F01442737FD4095542F6FEFB7
:100A90007FEF80E090E086D12E873F87488B598B8F
:100AA000DF91CF910895CF92DF92EF92FF920F9353
:100AB0001F93CF93DF936B01EA018C01061B170B89
:100AC0008C859D858017910784F0909581959F4F27
:100AD000081719077CF08E819F81089F7001099F7C
:100AE000F00C189FF00C112409C09FEFE92E9FE72E
:100AF000F92E04C081E0E82E80E8F82E222717FDA9
:100B00002095322F8A819B81AC81BD81080F191FEE
:100B10002A1F3B1F8E859F85A889B9898017910759
:100B2000A207B3074CF48A839B83AC83BD834FEF4A
:100B30005FEF60E070E024C0B095A095909581953E
:100B40009F4FAF4FBF4F081719072A073B074CF4B9
:100B50008A839B83AC83BD8341E050E06FEF7FEFDE
:100B60000FC00A831B832C833D8368857985882782
:100B700077FD8095982FA9019801ACD0AB01BC01FD
:100B8000888199818C199D092A853B85829F8001E6
:100B9000839F100D929F100D1124D982C882C70126
:100BA0006C01EE24D7FCE094FE2CCB01BA012EE1BF
:100BB00030E040E050E0F6D0C20ED31EE41EF51E39
:100BC000222717FD2095322FC00ED11EE21EF31EE4
:100BD000C701B60124E130E040E050E0E3D0C901B4
:100BE000DA01813020E892072FEFA2072FEFB2073A
:100BF00024F481E090E8AFEFBFEFAC01BD014030DD
:100C000080E8580780E0680780E0780724F04FEF1D
:100C10005FE760E070E0CA01DF91CF911F910F9113
:100C2000FF90EF90DF90CF900895FC011282138225
:100C300014821582089584B3886384BB87B381636B
:100C400087BB8C9A8D9AF89410BC89E189B980B5DC
:100C5000866880BD8AB188698AB954985798CADA7B
:100C6000DCDA8EE591E064E670E040E050E023E1FC
:100C700031E0EFDE85E090E062E070E040E050E0DF
:100C80002BEE30E0E6DE7894ACDA82E8809308015F
:100C9000A1DA949A87E690E041DA12C08F5F8093E0
:100CA00008012FEB34ED41E0215030404040E1F7A6
:100CB00000C0000090E03DDA8CE22CDA80E22ADA13
:100CC00080910801883C50F38AE024DA81E0809327
:100CD000AA00FFCF629FD001739FF001829FE00DB9
:100CE000F11D649FE00DF11D929FF00D839FF00DAB
:100CF000749FF00D659FF00D9927729FB00DE11D57
:100D0000F91F639FB00DE11DF91FBD01CF01112433
:100D10000895AA1BBB1B51E107C0AA1FBB1FA61742
:100D2000B70710F0A61BB70B881F991F5A95A9F794
:100D300080959095BC01CD01089597FB092E07265B
:100D40000AD077FD04D0E5DF06D000201AF47095B4
:100D500061957F4F0895F6F7909581959F4F08957F
:100D6000A1E21A2EAA1BBB1BFD010DC0AA1FBB1FAF
:100D7000EE1FFF1FA217B307E407F50720F0A21B21
:100D8000B30BE40BF50B661F771F881F991F1A948E
:100D900069F760957095809590959B01AC01BD01B8
:100DA000CF01089597FB092E05260ED057FD04D0DC
:100DB000D7DF0AD0001C38F4509540953095219526
:100DC0003F4F4F4F5F4F0895F6F790958095709580
:100DD00061957F4F8F4F9F4F0895FB019F014230D8
:100DE0006CF045325CF4642F772793DF805D8A33A3
:100DF0000CF0895D8193CB010097A9F71082C9019E
:100E000000C0DC01FC01672F71917723E1F7329775
:100E100004C07C916D9370836291AE17BF07C8F3D5
:060E20000895F894FFCFD5
:100E26000000000000000072616D702074656D7036
:100E36000A0001000000E00144003A02500062028C
:100E460055008A025A00B2026400BC026E00EE022D
:100E56008F001B03AA002A03F2004D03E84E00048C
:020E6600906595
:00000001FF
