:1000000012C02CC02BC02AC029C028C027C026C0BF
:1000100025C029C123C022C021C020C012C41EC0D7
:100020001DC01CC01BC011241FBECFE5D4E0DEBF25
:10003000CDBF10E0A0E6B0E0E6EBFCE002C005902A
:100040000D92A43AB107D9F711E0A4EAB0E001C0DB
:100050001D92A035B107E1F736D52BC6D1CFEF926F
:10006000FF920F931F93CF93DF9300D000D000D067
:10007000CDB7DEB7E62EF42EDE011196E0E6F0E015
:1000800026E001900D922150E1F78E010F5F1F4F86
:10009000B8014AE050E0E9D5F80101900020E9F705
:1000A00031978E2F801BEE2069F0EF2DF0E0EA549F
:1000B000FF4FE082F394EF2DF0E0EA54FF4F9AE314
:1000C000908301C0FA949E012F5F3F4FF9019F2D4D
:1000D00007C09F5F4191A92FB0E0AA54BF4F4C9336
:1000E0004E2F421B4817A8F38F0DE82FEF5FF0E06B
:1000F000EA54FF4F9CE290838E5F26960FB6F894E9
:10010000DEBF0FBECDBFDF91CF911F910F91FF904A
:10011000EF9008955D9BFECF8CB90895CF93DF9348
:10012000EC0101C0F7DF89918823E1F7DF91CF91DE
:100130000895BF92CF92DF92EF92FF920F931F9399
:10014000CF93DF938C0125E0E22EF12C20E0C0E17B
:10015000D7E23AE0C32ED12CC801BE0122D5B62E7B
:10016000662329F4222319F4C130D10521F48B2D03
:10017000805DD0DF21E06B2D70E06C9FC0016D9F32
:10018000900D7C9F900D1124081B190BCE01B60118
:1001900008D5EB010894E108F108E114F104E1F657
:1001A000DF91CF911F910F91FF90EF90DF90CF9053
:1001B000BF900895E82FF0E0EB54FF4F8AE0808372
:1001C00086EB90E0ABDFE6EBF0E082E3119281504A
:1001D000E9F7089589B7816089BF83B7846083BFD9
:1001E000089586B1856086B980EC87B9379A339ACD
:1001F000369A08958FB580688FBD8EB580618EBDAB
:100200008EB581608EBD8AE491E097BD86BDB99AB6
:1002100084E790E09BBD8ABD0895BB9A85B588644C
:1002200085BD85B5806285BD85B5816085BD13BC02
:1002300008958091A9008130A9F48091A6008F5F74
:100240008093A6008091A600843060F01092A600F2
:1002500082E48A95F1F700C087E08093E90081ECA1
:1002600087B9369A08951F920F920FB60F921124F4
:100270002F933F934F935F936F937F938F939F93AE
:10028000AF93BF93CF93EF93FF938091E8008130BA
:1002900039F4959A1092E800C0913701C09507C0D3
:1002A000959881E08093E800C0913701C2BFC7FFF5
:1002B000C0DFC2BFFF91EF91CF91BF91AF919F91EE
:1002C0008F917F916F915F914F913F912F910F90FF
:1002D0000FBE0F901F9018954091A8008091380193
:1002E0009091390160E0BBDE8093A80082E08093AA
:1002F000E90080EC87B9369A089580913801909191
:1003000039019093AD008093AC0088E08093E900C0
:10031000369A08958091AC009091AD0020913801FB
:1003200030913901820F931F9093AD008093AC0000
:1003300089E08093E900369A08958091AC0090910D
:10034000AD002091380130913901820F931F9093B5
:10035000AD008093AC008091AC009091AD0063E063
:1003600070E01FD47093AD006093AC0083E0809385
:10037000E90082EC87B9369A089584B195B1392F96
:1003800020E090E0822B932B08956091FC00709107
:10039000FD008DEE90E04AE351E0CDD2AA2797FD13
:1003A000A095BA2F8F3F9105A105B10519F014F062
:1003B0008FEF05C0B7FF03C01092370108958093F7
:1003C000370108956091AE007091AF0085E393E02E
:1003D0004AEE50E0B0D2AA2797FDA095BA2F8F59C8
:1003E0009F4FAF4FBF4F8A3421E0920720E0A20712
:1003F00020E0B2071CF089E491E005C0B7FF03C01C
:100400001BBC1ABC02C09BBD8ABD8AB59BB540917E
:10041000A80060E024DE8093A80008958091380150
:10042000909139019093AF008093AE008091AE001F
:100430009091AF004091A80060E011DE8093A80089
:100440008091AE009091AF00BDDF84E08093E90021
:1004500082EC87B9BA9A8AE18A95F1F700C0C29A0C
:10046000369A0895CF93DF932091000130910101D6
:100470003093FF002093FE00209102013091030190
:1004800030930101209300019093030180930201B6
:10049000CEEFD0E040E050E0A0E0B0E0E0E0F0E0FF
:1004A00060E070E089919991680F791F849F9001B5
:1004B000859F300D949F300D1124E20FF31F449F50
:1004C000C001459F900D549F900D1124A80FB91F96
:1004D0004F5F5F4F4330510529F7CB01880F991FBC
:1004E000860F971F9F01220F331F2E0F3F1F821B66
:1004F000930BBD01660F771F6A0F7B1F7095619587
:100500007F4F675F7F4F61D3862FDF91CF91089533
:100510000F931F939C0180E090E0FC010196DC01A9
:10052000AA0FBB1FAB5FBE4F4D915C911197EE0FB1
:10053000FF1FEB5FFE4F518340838831910569F7C0
:10054000E5E0F1E031AB20AB49E1461B80E090E013
:10055000DC010FC0E42FF0E0EE0FFF1FEB5FFE4F5A
:100560000081118120E030E0800F911FA21FB31F96
:100570004F5F493178F3262F30E040E050E0BC0176
:10058000CD0136D3C9011F910F910895AF92BF924B
:10059000CF92DF92EF92FF921F93CF93DF93CDB76D
:1005A000DEB7E0970FB6F894DEBF0FBECDBFC2989E
:1005B0002AE12A95F1F700C0BA98209138013091CC
:1005C00039013093AB002093AA001092E90080918A
:1005D000AE009091AF00281B390B2F3F310509F079
:1005E00048F48FEF90E0821B930B9093FD00809373
:1005F000FC0004C01092FD001092FC008091FC00F1
:100600009091FD009C01295E30402930310510F4A5
:10061000949801C0949A4091A80060E020DD8093F6
:10062000A8008091AC009091AD004091A80060E0DE
:1006300016DD8093A8008091A200813031F4809172
:10064000AC009091AD0064E605C08091AC00909143
:10065000AD0063E05DDF9093AD008093AC008091CE
:10066000AC009091AD004091A80060E0F8DC809370
:10067000A800DE011196E2E7F0E080E301900D9220
:100680008150E1F72091AC003091AD0089819A81D1
:100690002817390740F4CB80DC8010C0CC24DD243F
:1006A000760110E059C02091AC003091AD008DA5CD
:1006B0009EA58217930790F7CFA4D8A8EE24FF2415
:1006C000F0CFDC01AA0FBB1FAA0FBB1F21E030E057
:1006D0002C0F3D1FA20FB31F6D917C91119720919C
:1006E000AC003091AD0026173707A8F1FC01319618
:1006F000EE0FFF1FEE0FFF1F81E090E08C0F9D1F9C
:10070000E80FF91FA080B1808091AC009091AD00FE
:10071000A816B90600F12091AC003091AD001296F8
:10072000ED90FC901397828193818E199F09261B6F
:10073000370B829FA001839F500D929F500D112473
:100740009501261B370BB901CA012BD26E0D7F1DF7
:100750006B01EE24FF241F5F812F90E01B3009F016
:10076000B0CF4091A800C60160E079DC8093A8007A
:10077000D701C60180549040A040B0408934910513
:10078000A105B10500F5C701B60120EF38EE46E23C
:1007900050E0E8D160507C438A4B994028E430E037
:1007A00040E050E025D2CA01B90120E137E240E043
:1007B00050E01ED220934C0130934D0140934E01E6
:1007C00050934F011BC039E8C316D104E104F10472
:1007D00068F08FEF90E0A0E0B0E080934C01909340
:1007E0004D01A0934E01B0934F0108C010924C01EF
:1007F00010924D0110924E0110924F0180914C01C8
:1008000083BD4091A80080914C0190914D0160E022
:1008100026DC8093A800B9DD8091A800CBDC809312
:10082000A800E0960FB6F894DEBF0FBECDBFDF91F3
:10083000CF911F91FF90EF90DF90CF90BF90AF903E
:1008400008951F920F920FB60F9211242F933F938A
:100850004F935F936F937F938F939F93AF93BF93C8
:10086000EF93FF938ADD9093390180933801809153
:10087000E900873011F430DD23C08091E900823037
:1008800011F43BDD1DC08091E900883011F442DD98
:1008900017C08091E900893011F44FDD11C08091BB
:1008A000E900833011F4BADD0BC08091E900843097
:1008B00011F46CDE05C061DD90933901809338013D
:1008C000FF91EF91BF91AF919F918F917F916F9128
:1008D0005F914F913F912F910F900FBE0F901F90FE
:1008E0001895CF93DF93FB01E9011A821B821C82CA
:1008F0001D82198218829F838E83798768875B8720
:100900004A87BC016F5F7F4F8FEF9FE75ED17D8786
:100910006C8731969F01442737FD4095542F6FEF28
:100920007FEF80E090E086D12E873F87488B598B00
:10093000DF91CF910895CF92DF92EF92FF920F93C4
:100940001F93CF93DF936B01EA018C01061B170BFA
:100950008C859D858017910784F0909581959F4F98
:10096000081719077CF08E819F81089F7001099FED
:10097000F00C189FF00C112409C09FEFE92E9FE79F
:10098000F92E04C081E0E82E80E8F82E222717FD1A
:100990002095322F8A819B81AC81BD81080F191F60
:1009A0002A1F3B1F8E859F85A889B98980179107CB
:1009B000A207B3074CF48A839B83AC83BD834FEFBC
:1009C0005FEF60E070E024C0B095A09590958195B0
:1009D0009F4FAF4FBF4F081719072A073B074CF42B
:1009E0008A839B83AC83BD8341E050E06FEF7FEF50
:1009F0000FC00A831B832C833D83688579858827F4
:100A000077FD8095982FA9019801ACD0AB01BC016E
:100A1000888199818C199D092A853B85829F800157
:100A2000839F100D929F100D1124D982C882C70197
:100A30006C01EE24D7FCE094FE2CCB01BA012EE130
:100A400030E040E050E0F6D0C20ED31EE41EF51EAA
:100A5000222717FD2095322FC00ED11EE21EF31E55
:100A6000C701B60124E130E040E050E0E3D0C90125
:100A7000DA01813020E892072FEFA2072FEFB207AB
:100A800024F481E090E8AFEFBFEFAC01BD0140304E
:100A900080E8580780E0680780E0780724F04FEF8F
:100AA0005FE760E070E0CA01DF91CF911F910F9185
:100AB000FF90EF90DF90CF900895FC011282138297
:100AC00014821582089584B3886384BB87B38163DD
:100AD00087BB8C9A8D9AF89410BC89E189B980B54E
:100AE000866880BD8AB188698AB95498579882DB34
:100AF00094DB8EE591E064E670E040E050E02AE3AC
:100B000031E0EFDE85E090E062E070E040E050E050
:100B10002AEE30E0E6DE789464DB82E880933701E9
:100B200059DB949A87E690E0F9DA12C08F5F8093E0
:100B300037012FEB34ED41E0215030404040E1F7E8
:100B400000C0000090E0F5DA8CE2E4DA80E2E2DA5C
:100B500080913701883C50F38AE0DCDA81E08093B1
:100B6000A900FFCF629FD001739FF001829FE00D2B
:100B7000F11D649FE00DF11D929FF00D839FF00D1C
:100B8000749FF00D659FF00D9927729FB00DE11DC8
:100B9000F91F639FB00DE11DF91FBD01CF011124A5
:100BA0000895AA1BBB1B51E107C0AA1FBB1FA617B4
:100BB000B70710F0A61BB70B881F991F5A95A9F706
:100BC00080959095BC01CD01089597FB092E0726CD
:100BD0000AD077FD04D0E5DF06D000201AF4709526
:100BE00061957F4F0895F6F7909581959F4F0895F1
:100BF000A1E21A2EAA1BBB1BFD010DC0AA1FBB1F21
:100C0000EE1FFF1FA217B307E407F50720F0A21B92
:100C1000B30BE40BF50B661F771F881F991F1A94FF
:100C200069F760957095809590959B01AC01BD0129
:100C3000CF01089597FB092E05260ED057FD04D04D
:100C4000D7DF0AD0001C38F4509540953095219597
:100C50003F4F4F4F5F4F0895F6F7909580957095F1
:100C600061957F4F8F4F9F4F0895FB019F01423049
:100C70006CF045325CF4642F772793DF805D8A3314
:100C80000CF0895D8193CB010097A9F71082C9010F
:100C900000C0DC01FC01672F71917723E1F73297E7
:100CA00004C07C916D9370836291AE17BF07C8F347
:060CB0000895F894FFCF47
:100CB6000000000000000072616D702074656D70A8
:100CC6000A0001000000E00144003A0250006202FE
:100CD60055008A025A00B2026400BC026E00EE029F
:100CE6008F001B03AA002A03F2004D03E84E0004FE
:040CF6009065010004
:00000001FF
