:1000000012C02CC02BC02AC029C028C027C026C0BF
:1000100025C01EC123C022C021C020C080C31EC075
:100020001DC01CC01BC011241FBECFE5D4E0DEBF25
:10003000CDBF10E0A0E6B0E0E4E9FBE002C005902F
:100040000D92A23AB107D9F711E0A2EAB0E001C0DF
:100050001D92A032B107E1F7A4D49AC5D1CFEF9297
:10006000FF920F931F93CF93DF9300D000D000D067
:10007000CDB7DEB7E62EF42EDE011196E0E6F0E015
:1000800026E001900D922150E1F78E010F5F1F4F86
:10009000B8014AE050E058D5F80101900020E9F796
:1000A00031978E2F801BEE2069F0EF2DF0E0EE549B
:1000B000FF4FE082F394EF2DF0E0EE54FF4F9AE310
:1000C000908301C0FA949E012F5F3F4FF9019F2D4D
:1000D00007C09F5F4191A92FB0E0AE54BF4F4C9332
:1000E0004E2F421B4817A8F38F0DE82FEF5FF0E06B
:1000F000EE54FF4F9CE290838E5F26960FB6F894E5
:10010000DEBF0FBECDBFDF91CF911F910F91FF904A
:10011000EF9008955D9BFECF8CB90895CF93DF9348
:10012000EC0101C0F7DF89918823E1F7DF91CF91DE
:100130000895BF92CF92DF92EF92FF920F931F9399
:10014000CF93DF938C0125E0E22EF12C20E0C0E17B
:10015000D7E23AE0C32ED12CC801BE0191D4B62E0D
:10016000662329F4222319F4C130D10521F48B2D03
:10017000805DD0DF21E06B2D70E06C9FC0016D9F32
:10018000900D7C9F900D1124081B190BCE01B60118
:1001900077D4EB010894E108F108E114F104E1F6E9
:1001A000DF91CF911F910F91FF90EF90DF90CF9053
:1001B000BF900895E82FF0E0EF54FF4F8AE080836E
:1001C00082EB90E0ABDFE2EBF0E082E31192815052
:1001D000E9F7089589B7816089BF83B7846083BFD9
:1001E000089586B1856086B980EC87B9379A339ACD
:1001F000369A08958FB580688FBD8EB580618EBDAB
:100200008EB581608EBD8AE491E097BD86BDB99AB6
:1002100084E790E09BBD8ABD0895BB9A85B588644C
:1002200085BD85B5806285BD85B5816085BD13BC02
:1002300008958091A400813051F482E48A95F1F709
:1002400000C087E08093E50080EC87B9369A089576
:100250001F920F920FB60F9211242F933F934F933B
:100260005F936F937F938F939F93AF93BF93CF933E
:10027000EF93FF938091E400813039F4959A1092C6
:10028000E400C0910701C09507C0959881E0809374
:10029000E400C0910701C2BFC7FFCBDFC2BFFF911F
:1002A000EF91CF91BF91AF919F918F917F916F917E
:1002B0005F914F913F912F910F900FBE0F901F9024
:1002C000189582E08093E50080EC87B9369A08950E
:1002D00080910801909109019093AA008093A90050
:1002E00088E08093E500369A08958091A900909166
:1002F000AA002091080130910901820F931F909369
:10030000AA008093A90089E08093E500369A0895B9
:1003100080910801909109012091A9003091AA00D3
:10032000820F931F63E070E0ABD3CB016093A90011
:100330009093AA004091A30060E091DE8093A30017
:1003400083E08093E50082EC87B9369A0895809126
:100350000801909109019093AC008093AB0040910B
:10036000A30060E07CDE8093A30084E08093E5003E
:1003700082EC87B9C29A369A089584B195B1392F23
:1003800020E090E0822B932B08956091F80070910B
:10039000F9008DEE90E04AE051E03BD2AA2797FDAC
:1003A000A095BA2F8F3F9105A105B10519F014F062
:1003B0008FEF05C0B7FF03C0109207010895809327
:1003C000070108958091AE009091AF00A091B00018
:1003D000B091B1000196A11DB11D8093AE00909324
:1003E000AF00A093B000B093B10081359105A10595
:1003F000B105C8F08091AD008F5F8093AD00109281
:10040000AE001092AF001092B0001092B1008F3F7A
:1004100019F484EB8093AD008091AD008A3918F413
:1004200084EB8093AD008091AD0090E0A0E0B0E05F
:100430008F3F9105A105B10539F48EEF90E09BBD8A
:100440008ABD1092AD0009C082339105A105B105A6
:1004500014F482E390E09BBD8ABD8AB59BB54091C0
:10046000A30060E0FCDD8093A3000895AF92BF92EB
:10047000CF92DF92EF92FF920F931F93CF93DF9370
:10048000CDB7DEB7E0970FB6F894DEBF0FBECDBF95
:10049000C29880910801909109019093A8008093DF
:1004A000A7001092E5008EDF8091A7009091A80030
:1004B0002091AB003091AC00821B930B8F3F9105D4
:1004C00009F048F42FEF30E0281B390B3093F90086
:1004D0002093F80004C01092F9001092F800809167
:1004E000F8009091F9009C01295E304029303105D7
:1004F00010F4949801C0949A4091A30060E0AFDD9D
:100500008093A3004091FF00509100016091010190
:10051000709102014093FB005093FC006093FD003A
:100520007093FE008091030190910401A091050158
:10053000B09106018093FF0090930001A093010108
:10054000B0930201E091A900F091AA008F0120E090
:1005500030E00093030110930401209305013093D0
:100560000601840F951F8E0F9F1F63E070E088D2F5
:100570008B017093AA006093A900DE011196E2E757
:10058000F0E080E301900D928150E1F789819A813A
:100590000817190740F4CB80DC800CC0CC24DD2484
:1005A000760120E046C08DA59EA580179107B0F783
:1005B000CFA4D8A8EE24FF24F4CFDC01AA0FBB1FE0
:1005C000AA0FBB1F41E050E04C0F5D1FA40FB51FE9
:1005D0006D917C9111970617170750F1FC01319628
:1005E000EE0FFF1FEE0FFF1FE40FF51FA080B1807D
:1005F000A016B106E8F01296CD90DC901397D801C2
:10060000A61BB70B828193818C199D09A89FA0011D
:10061000A99F500DB89F500D1124C501861B970B43
:10062000BC01CA012DD26C0D7D1D6B01EE24FF248F
:100630002F5F822F90E02B3009F0BFCF4091A300B5
:10064000C60160E00CDD8093A300D701C601805491
:100650009040A040B04089349105A105B10500F556
:10066000C701B60120EF38EE46E250E0EAD1605013
:100670007C438A4B994028E430E040E050E027D2A8
:10068000CA01B90120E137E240E050E020D22093D6
:100690001C0130931D0140931E0150931F011BC08C
:1006A00099E8C916D104E104F10468F08FEF90E0F5
:1006B000A0E0B0E080931C0190931D01A0931E0167
:1006C000B0931F0108C010921C0110921D011092DE
:1006D0001E0110921F0180911C0183BD4091A30057
:1006E00080911C0190911D0160E0B9DC8093A30012
:1006F0004CDE8091A3005EDD8093A300E0960FB6F0
:10070000F894DEBF0FBECDBFDF91CF911F910F9147
:10071000FF90EF90DF90CF90BF90AF9008951F9221
:100720000F920FB60F9211242F933F934F935F9325
:100730006F937F938F939F93AF93BF93EF93FF93A9
:100740001CDE90930901809308018091E5008730B9
:1007500011F4B7DD23C08091E500823011F4B8DDDB
:100760001DC08091E500883011F4BFDD17C0809175
:10077000E500893011F4CCDD11C08091E5008330B3
:1007800011F4E5DD0BC08091E500843011F46EDEDC
:1007900005C0F3DD9093090180930801FF91EF916B
:1007A000BF91AF919F918F917F916F915F914F9189
:1007B0003F912F910F900FBE0F901F901895CF93E0
:1007C000DF93FB01E9011A821B821C821D821982C0
:1007D00018829F838E83798768875B874A87BC01ED
:1007E0006F5F7F4F8FEF9FE75FD17D876C8731967B
:1007F0009F01442737FD4095542F6FEF7FEF80E036
:1008000090E087D12E873F87488B598BDF91CF911E
:100810000895CF92DF92EF92FF920F931F93CF93A1
:10082000DF936B01EA018C01061B170B8C859D85FC
:100830008017910784F0909581959F4F08171907AD
:100840007CF08E819F81089F7001099FF00C189F9A
:10085000F00C112409C09FEFE92E9FE7F92E04C088
:1008600081E0E82E80E8F82E222717FD2095322F10
:100870008A819B81AC81BD81080F191F2A1F3B1FF4
:100880008E859F85A889B98980179107A207B3072C
:100890004CF48A839B83AC83BD834FEF5FEF60E0B2
:1008A00070E024C0B095A095909581959F4FAF4F73
:1008B000BF4F081719072A073B074CF48A839B830D
:1008C000AC83BD8341E050E06FEF7FEF0FC00A8340
:1008D0001B832C833D8368857985882777FD8095E8
:1008E000982FA9019801ADD0AB01BC0188819981F5
:1008F0008C199D092A853B85829F8001839F100D5D
:10090000929F100D1124D982C882C7016C01EE2478
:10091000D7FCE094FE2CCB01BA012EE130E040E0A0
:1009200050E0F7D0C20ED31EE41EF51E222717FD9D
:100930002095322FC00ED11EE21EF31EC701B60154
:1009400024E130E040E050E0E4D0C901DA01813038
:1009500020E892072FEFA2072FEFB20724F481E0DF
:1009600090E8AFEFBFEFAC01BD01403080E8580721
:1009700080E0680780E0780724F04FEF5FE760E0F1
:1009800070E0CA01DF91CF911F910F91FF90EF901E
:10099000DF90CF900895FC01128213821482158299
:1009A000089584B3886384BB87B3816387BB8C9AC3
:1009B0008D9ABA9AF89410BC89E189B980B5866895
:1009C00080BD8AB188698AB95498579813DC25DCB0
:1009D0008EE591E064E670E040E050E02AE031E02E
:1009E000EEDE84E090E06AE070E040E050E026EE69
:1009F00030E0E5DE7894F5DB82E880930701EADBFE
:100A0000949A87E690E08ADB12C08F5F809307019B
:100A10002FEB34ED41E0215030404040E1F700C081
:100A2000000090E086DB8CE275DB80E273DB809176
:100A30000701883C50F38AE06DDB81E08093A400DD
:100A4000FFCF629FD001739FF001829FE00DF11DE7
:100A5000649FE00DF11D929FF00D839FF00D749F38
:100A6000F00D659FF00D9927729FB00DE11DF91FE4
:100A7000639FB00DE11DF91FBD01CF011124089541
:100A8000AA1BBB1B51E107C0AA1FBB1FA617B707B4
:100A900010F0A61BB70B881F991F5A95A9F78095D0
:100AA0009095BC01CD01089597FB092E07260AD029
:100AB00077FD04D0E5DF06D000201AF4709561952B
:100AC0007F4F0895F6F7909581959F4F0895A1E285
:100AD0001A2EAA1BBB1BFD010DC0AA1FBB1FEE1FB8
:100AE000FF1FA217B307E407F50720F0A21BB30B03
:100AF000E40BF50B661F771F881F991F1A9469F77F
:100B000060957095809590959B01AC01BD01CF01DA
:100B1000089597FB092E05260ED057FD04D0D7DF88
:100B20000AD0001C38F450954095309521953F4FE0
:100B30004F4F5F4F0895F6F79095809570956195AA
:100B40007F4F8F4F9F4F0895FB019F0142306CF004
:100B500045325CF4642F772793DF805D8A330CF095
:100B6000895D8193CB010097A9F71082C90100C06C
:100B7000DC01FC01672F71917723E1F7329704C004
:100B80007C916D9370836291AE17BF07C8F308958F
:040B9000F894FFCF07
:100B94000000000000000072616D702074656D70CB
:100BA4000A00C80000001801440088015000BA017E
:100BB4005500E8015A003202640068026E009D028A
:100BC4008F00C802AA000F03F200C003E84E00041D
:020BD40090652A
:00000001FF
