:1000000012C02CC02BC02AC029C028C027C026C0BF
:1000100025C029C123C022C021C020C031C41EC0B8
:100020001DC01CC01BC011241FBECFE5D4E0DEBF25
:10003000CDBF10E0A0E6B0E0E4EFFCE002C0059028
:100040000D92A43AB107D9F711E0A4EAB0E001C0DB
:100050001D92A836B107E1F755D54AC6D1CFEF9228
:10006000FF920F931F93CF93DF9300D000D000D067
:10007000CDB7DEB7E62EF42EDE011196E0E6F0E015
:1000800026E001900D922150E1F78E010F5F1F4F86
:10009000B8014AE050E008D6F80101900020E9F7E5
:1000A00031978E2F801BEE2069F0EF2DF0E0EA549F
:1000B000FF4FE082F394EF2DF0E0EA54FF4F9AE314
:1000C000908301C0FA949E012F5F3F4FF9019F2D4D
:1000D00007C09F5F4191A92FB0E0AA54BF4F4C9336
:1000E0004E2F421B4817A8F38F0DE82FEF5FF0E06B
:1000F000EA54FF4F9CE290838E5F26960FB6F894E9
:10010000DEBF0FBECDBFDF91CF911F910F91FF904A
:10011000EF9008955D9BFECF8CB90895CF93DF9348
:10012000EC0101C0F7DF89918823E1F7DF91CF91DE
:100130000895BF92CF92DF92EF92FF920F931F9399
:10014000CF93DF938C0125E0E22EF12C20E0C0E17B
:10015000D7E23AE0C32ED12CC801BE0141D5B62E5C
:10016000662329F4222319F4C130D10521F48B2D03
:10017000805DD0DF21E06B2D70E06C9FC0016D9F32
:10018000900D7C9F900D1124081B190BCE01B60118
:1001900027D5EB010894E108F108E114F104E1F638
:1001A000DF91CF911F910F91FF90EF90DF90CF9053
:1001B000BF900895E82FF0E0EB54FF4F8AE0808372
:1001C00086EB90E0ABDFE6EBF0E082E3119281504A
:1001D000E9F7089589B7816089BF83B7846083BFD9
:1001E000089586B1856086B980EC87B9379A339ACD
:1001F000369A08958FB580688FBD8EB580618EBDAB
:100200008EB581608EBD8AE491E097BD86BDB99AB6
:1002100084E790E09BBD8ABD0895BB9A85B588644C
:1002200085BD85B5806285BD85B5816085BD13BC02
:1002300008958091A9008130A9F48091A7008F5F73
:100240008093A7008091A700843060F01092A700EF
:1002500082E48A95F1F700C087E08093E90081ECA1
:1002600087B9369A08951F920F920FB60F921124F4
:100270002F933F934F935F936F937F938F939F93AE
:10028000AF93BF93CF93EF93FF938091E8008130BA
:1002900039F4959A1092E800C0912701C09507C0E3
:1002A000959881E08093E800C0912701C2BFC7FF05
:1002B000C0DFC2BFFF91EF91CF91BF91AF919F91EE
:1002C0008F917F916F915F914F913F912F910F90FF
:1002D0000FBE0F901F9018954091A80080912801A3
:1002E0009091290160E0BBDE8093A80082E08093BA
:1002F000E90080EC87B9369A0895809128019091A1
:1003000029019093AD008093AC0088E08093E900D0
:10031000369A08958091AC009091AD00209128010B
:1003200030912901820F931F9093AD008093AC0010
:1003300089E08093E900369A08958091AC0090910D
:10034000AD002091280130912901820F931F9093D5
:10035000AD008093AC008091AC009091AD0063E063
:1003600070E03ED47093AD006093AC008091AC001F
:100370009091AD004091A80060E071DE8093A800EC
:1003800083E08093E90082EC87B9369A08958091E2
:100390002801909129019093AF008093AE00809145
:1003A000AE009091AF004091A80060E058DE8093CD
:1003B000A80084E08093E90082EC87B9BA9A8AE1C8
:1003C0008A95F1F700C0C29A369A089584B195B122
:1003D000392F20E090E0822B932B08956091FC0050
:1003E0007091FD008DEE90E042E551E0C3D2AA2766
:1003F00097FDA095BA2F8F3F9105A105B10519F082
:1004000014F08FEF05C0B7FF03C0109227010895C5
:100410008093270108956091AE007091AF0085E34D
:1004200093E04AEE50E0A6D2AA2797FDA095BA2FF6
:100430008C589F4FAF4FBF4F8A3421E0920720E086
:10044000A20720E0B2071CF089E491E005C0B7FFE5
:1004500003C01BBC1ABC08959BBD8ABD0895DB0177
:100460008330D0F094E1981B40E050E00DC0E92FBC
:10047000F0E0EE0FFF1FEA0FFB1F20813181420FDA
:10048000531F208131819F5F943188F3682FCA0107
:1004900070E0BAD3CB01089596968D919C91979771
:1004A0000895DB0140E0FD0112962D913C911197DA
:1004B000318320834F5F4331B1F7FB0197A386A3BC
:1004C00008958F929F92AF92BF92CF92DF92EF9258
:1004D000FF920F931F93CF93DF93CDB7DEB7E097D3
:1004E0000FB6F894DEBF0FBECDBFC2988AE18A95E1
:1004F000F1F700C0BA98209128013091290130937A
:10050000AB002093AA001092E9008091AE00909178
:10051000AF00281B390B2F3F310509F048F48FEF4E
:1005200090E0821B930B9093FD008093FC0004C02D
:100530001092FD001092FC008091FC009091FD0053
:100540009C01295E30402930310510F4949801C097
:10055000949A4091A80060E082DD8093A800C0904A
:100560002401D09025018091AE009091AF00C81A6F
:10057000D90A8091AE009091AF006EEF70E091DFEC
:100580008091AC009091AD006AE271E08ADF8091C9
:10059000A6008823F9F481E08093A300C601D7FE6A
:1005A00004C0882799278C199D098730910508F484
:1005B0005DC021E02093A600D7FE03C01092A200E8
:1005C00002C02093A2008331910508F083E180935B
:1005D000A3004CC08091A5008F5F8093A5008091FF
:1005E000A3006EEF70E03BDF2091AE003091AF00D2
:1005F000821B930B97FF03C0909581959F4F82308C
:10060000910524F08091A500853128F08091A40007
:100610008F5F8093A4008091A400863030F0109208
:10062000A4001092A6001092A500C601D7FE04C037
:10063000882799278C199D0987309105B8F08091FA
:10064000A200D7FE03C0882319F010C0813071F4D6
:100650008091A300843128F48091A3008F5F809360
:10066000A3001092A50081E08093A6008091A300D2
:100670006EEF70E0F4DE6C018091A3006AE271E03D
:10068000EEDE8C018091A3004091A80090E060E034
:10069000E6DC8093A8008091A6004091A80090E03D
:1006A00060E0DDDC8093A8008AB59BB54091A8008E
:1006B00060E0D5DC8093A8004091A800C60160E00E
:1006C000CEDC8093A8004091A800C80160E0C7DCA0
:1006D0008093A800C6019FDEDE011196E2E7F0E0FC
:1006E00080E301900D928150E1F789819A8108178A
:1006F000190740F48B809C800CC0882499245401F5
:1007000020E045C08DA59EA580179107B0F78FA466
:1007100098A8AA24BB24F4CFDF01AA0FBB1FAA0FFD
:10072000BB1F81E090E08C0F9D1FA80FB91F6D913A
:100730007C9111970617170748F13196EE0FFF1FAE
:10074000EE0FFF1FE80FF91FC080D180C016D10641
:10075000E8F012968D909C901397D801A61BB70BCA
:100760008281938188199909A89FA001A99F500DA2
:10077000B89F500D1124C601861B970BBC01CA01FE
:100780002FD2680D791D4B01AA24BB242F5FE22FC5
:10079000F0E02B3009F636EFC32E3FEFD32E3FEFBC
:1007A000E32E3FEFF32EC80CD91CEA1CFB1C409132
:1007B000A800C60160E053DC8093A800D501C40105
:1007C0008A549040A040B04089349105A105B105FC
:1007D00000F5C701B60120EF38EE46E250E0E1D166
:1007E00060507C438A4B994028E430E040E050E080
:1007F0001ED2CA01B90120E137E240E050E017D231
:100800002093640130936501409366015093670122
:100810001BC099E8C916D104E104F10468F08FEF18
:1008200090E0A0E0B0E08093640190936501A09314
:100830006601B093670108C01092640110926501CF
:1008400010926601109267018091640183BDC6DD3C
:100850008091A800AFDC8093A800E0960FB6F894D2
:10086000DEBF0FBECDBFDF91CF911F910F91FF90E3
:10087000EF90DF90CF90BF90AF909F908F900895B2
:100880001F920F920FB60F9211242F933F934F9305
:100890005F936F937F938F939F93AF93BF93EF93E8
:1008A000FF9394DD90932901809328018091E900C2
:1008B000873011F411DD23C08091E900823011F4FA
:1008C0001CDD1DC08091E900883011F423DD17C0C4
:1008D0008091E900893011F430DD11C08091E90088
:1008E000833011F454DD0BC08091E900843011F4A1
:1008F000E8DD05C06BDD9093290180932801FF910D
:10090000EF91BF91AF919F918F917F916F915F9187
:100910004F913F912F910F900FBE0F901F90189500
:10092000CF93DF93FB01E9011A821B821C821D8297
:10093000198218829F838E83798768875B874A87AD
:10094000BC016F5F7F4F8FEF9FE75ED17D876C8724
:1009500031969F01442737FD4095542F6FEF7FEF6D
:1009600080E090E086D12E873F87488B598BDF91BE
:10097000CF910895CF92DF92EF92FF920F931F9342
:10098000CF93DF936B01EA018C01061B170B8C855B
:100990009D858017910784F0909581959F4F08174A
:1009A00019077CF08E819F81089F7001099FF00CD0
:1009B000189FF00C112409C09FEFE92E9FE7F92E34
:1009C00004C081E0E82E80E8F82E222717FD20954C
:1009D000322F8A819B81AC81BD81080F191F2A1F8C
:1009E0003B1F8E859F85A889B98980179107A2072B
:1009F000B3074CF48A839B83AC83BD834FEF5FEFD7
:100A000060E070E024C0B095A095909581959F4FCF
:100A1000AF4FBF4F081719072A073B074CF48A83CB
:100A20009B83AC83BD8341E050E06FEF7FEF0FC04D
:100A30000A831B832C833D8368857985882777FD0E
:100A40008095982FA9019801ACD0AB01BC01888199
:100A500099818C199D092A853B85829F8001839FFE
:100A6000100D929F100D1124D982C882C7016C010C
:100A7000EE24D7FCE094FE2CCB01BA012EE130E04D
:100A800040E050E0F6D0C20ED31EE41EF51E222731
:100A900017FD2095322FC00ED11EE21EF31EC70196
:100AA000B60124E130E040E050E0E3D0C901DA01D2
:100AB000813020E892072FEFA2072FEFB20724F42E
:100AC00081E090E8AFEFBFEFAC01BD01403080E8BE
:100AD000580780E0680780E0780724F04FEF5FE771
:100AE00060E070E0CA01DF91CF911F910F91FF90FC
:100AF000EF90DF90CF900895FC0112821382148250
:100B00001582089584B3886384BB87B3816387BBF0
:100B10008C9A8D9AF89410BC89E189B980B5866861
:100B200080BD8AB188698AB95498579863DB75DBB0
:100B30008EE591E064E670E040E050E022E531E0CF
:100B4000EFDE89E090E06AE070E040E050E02AEEFD
:100B500030E0E6DE789445DB82E8809327013ADBDB
:100B6000949A87E690E0DADA12C08F5F80932701CB
:100B70002FEB34ED41E0215030404040E1F700C020
:100B8000000090E0D6DA8CE2C5DA80E2C3DA809128
:100B90002701883C50F38AE0BDDA81E08093A90008
:100BA000FFCF629FD001739FF001829FE00DF11D86
:100BB000649FE00DF11D929FF00D839FF00D749FD7
:100BC000F00D659FF00D9927729FB00DE11DF91F83
:100BD000639FB00DE11DF91FBD01CF0111240895E0
:100BE000AA1BBB1B51E107C0AA1FBB1FA617B70753
:100BF00010F0A61BB70B881F991F5A95A9F780956F
:100C00009095BC01CD01089597FB092E07260AD0C7
:100C100077FD04D0E5DF06D000201AF470956195C9
:100C20007F4F0895F6F7909581959F4F0895A1E223
:100C30001A2EAA1BBB1BFD010DC0AA1FBB1FEE1F56
:100C4000FF1FA217B307E407F50720F0A21BB30BA1
:100C5000E40BF50B661F771F881F991F1A9469F71D
:100C600060957095809590959B01AC01BD01CF0179
:100C7000089597FB092E05260ED057FD04D0D7DF27
:100C80000AD0001C38F450954095309521953F4F7F
:100C90004F4F5F4F0895F6F7909580957095619549
:100CA0007F4F8F4F9F4F0895FB019F0142306CF0A3
:100CB00045325CF4642F772793DF805D8A330CF034
:100CC000895D8193CB010097A9F71082C90100C00B
:100CD000DC01FC01672F71917723E1F7329704C0A3
:100CE0007C916D9370836291AE17BF07C8F308952E
:040CF000F894FFCFA6
:100CF4000000000000000072616D702074656D706A
:100D04000A0001000000E00144003A0250006202BF
:100D140055008A025A00B2026400BC026E00EE0260
:100D24008F001B03AA002A03F2004D03E84E0004BF
:040D340090650303C0
:00000001FF
